{
    "abi": [
        {
            "inputs": [
                {
                    "internalType": "address",
                    "name": "_owner",
                    "type": "address"
                },
                {
                    "internalType": "uint256",
                    "name": "_showId",
                    "type": "uint256"
                },
                {
                    "internalType": "string",
                    "name": "_title",
                    "type": "string"
                },
                {
                    "internalType": "string",
                    "name": "_description",
                    "type": "string"
                },
                {
                    "internalType": "string",
                    "name": "_image",
                    "type": "string"
                },
                {
                    "internalType": "string",
                    "name": "_date",
                    "type": "string"
                },
                {
                    "internalType": "string",
                    "name": "_openingTime",
                    "type": "string"
                },
                {
                    "internalType": "string",
                    "name": "_closingTime",
                    "type": "string"
                }
            ],
            "stateMutability": "nonpayable",
            "type": "constructor"
        },
        {
            "inputs": [],
            "name": "ShowIsNotScheduled",
            "type": "error"
        },
        {
            "inputs": [],
            "name": "Unauthorized",
            "type": "error"
        },
        {
            "anonymous": false,
            "inputs": [],
            "name": "ShowCancelled",
            "type": "event"
        },
        {
            "anonymous": false,
            "inputs": [
                {
                    "indexed": true,
                    "internalType": "uint256",
                    "name": "showId",
                    "type": "uint256"
                },
                {
                    "indexed": false,
                    "internalType": "string",
                    "name": "title",
                    "type": "string"
                },
                {
                    "indexed": false,
                    "internalType": "string",
                    "name": "date",
                    "type": "string"
                }
            ],
            "name": "ShowScheduled",
            "type": "event"
        },
        {
            "inputs": [],
            "name": "MAX_SEATS",
            "outputs": [
                {
                    "internalType": "uint256",
                    "name": "",
                    "type": "uint256"
                }
            ],
            "stateMutability": "view",
            "type": "function"
        },
        {
            "inputs": [],
            "name": "MAX_SEAT_TYPES",
            "outputs": [
                {
                    "internalType": "uint256",
                    "name": "",
                    "type": "uint256"
                }
            ],
            "stateMutability": "view",
            "type": "function"
        },
        {
            "inputs": [],
            "name": "MAX_STAFFS",
            "outputs": [
                {
                    "internalType": "uint256",
                    "name": "",
                    "type": "uint256"
                }
            ],
            "stateMutability": "view",
            "type": "function"
        },
        {
            "inputs": [
                {
                    "internalType": "uint256",
                    "name": "_seatTypeId",
                    "type": "uint256"
                },
                {
                    "internalType": "string",
                    "name": "_name",
                    "type": "string"
                }
            ],
            "name": "addSeat",
            "outputs": [
                {
                    "internalType": "uint256",
                    "name": "",
                    "type": "uint256"
                }
            ],
            "stateMutability": "nonpayable",
            "type": "function"
        },
        {
            "inputs": [
                {
                    "internalType": "string",
                    "name": "_name",
                    "type": "string"
                },
                {
                    "internalType": "uint256",
                    "name": "_price",
                    "type": "uint256"
                }
            ],
            "name": "addSeatType",
            "outputs": [
                {
                    "internalType": "uint256",
                    "name": "",
                    "type": "uint256"
                }
            ],
            "stateMutability": "nonpayable",
            "type": "function"
        },
        {
            "inputs": [
                {
                    "internalType": "string[]",
                    "name": "_names",
                    "type": "string[]"
                },
                {
                    "internalType": "uint256[]",
                    "name": "_prices",
                    "type": "uint256[]"
                }
            ],
            "name": "addSeatTypes",
            "outputs": [
                {
                    "internalType": "uint256[]",
                    "name": "",
                    "type": "uint256[]"
                }
            ],
            "stateMutability": "nonpayable",
            "type": "function"
        },
        {
            "inputs": [
                {
                    "internalType": "uint256",
                    "name": "_seatTypeId",
                    "type": "uint256"
                },
                {
                    "internalType": "string[]",
                    "name": "_names",
                    "type": "string[]"
                }
            ],
            "name": "addSeats",
            "outputs": [
                {
                    "internalType": "uint256[]",
                    "name": "",
                    "type": "uint256[]"
                }
            ],
            "stateMutability": "nonpayable",
            "type": "function"
        },
        {
            "inputs": [
                {
                    "internalType": "address",
                    "name": "_staff",
                    "type": "address"
                },
                {
                    "internalType": "string",
                    "name": "_name",
                    "type": "string"
                }
            ],
            "name": "addStaff",
            "outputs": [],
            "stateMutability": "nonpayable",
            "type": "function"
        },
        {
            "inputs": [
                {
                    "internalType": "uint256",
                    "name": "_ticketId",
                    "type": "uint256"
                },
                {
                    "internalType": "string",
                    "name": "_buyerName",
                    "type": "string"
                }
            ],
            "name": "buyOfferedTicket",
            "outputs": [
                {
                    "internalType": "uint256",
                    "name": "",
                    "type": "uint256"
                }
            ],
            "stateMutability": "payable",
            "type": "function"
        },
        {
            "inputs": [
                {
                    "internalType": "uint256",
                    "name": "_seatTypeId",
                    "type": "uint256"
                },
                {
                    "internalType": "uint256",
                    "name": "_seatNum",
                    "type": "uint256"
                },
                {
                    "internalType": "string",
                    "name": "_buyerName",
                    "type": "string"
                }
            ],
            "name": "buyTicket",
            "outputs": [
                {
                    "internalType": "uint256",
                    "name": "",
                    "type": "uint256"
                }
            ],
            "stateMutability": "payable",
            "type": "function"
        },
        {
            "inputs": [],
            "name": "cancelShow",
            "outputs": [],
            "stateMutability": "nonpayable",
            "type": "function"
        },
        {
            "inputs": [
                {
                    "internalType": "uint256",
                    "name": "_ticketId",
                    "type": "uint256"
                }
            ],
            "name": "cancelTicket",
            "outputs": [],
            "stateMutability": "nonpayable",
            "type": "function"
        },
        {
            "inputs": [
                {
                    "internalType": "uint256",
                    "name": "_ticketId",
                    "type": "uint256"
                }
            ],
            "name": "checkIn",
            "outputs": [],
            "stateMutability": "nonpayable",
            "type": "function"
        },
        {
            "inputs": [],
            "name": "closingTime",
            "outputs": [
                {
                    "internalType": "string",
                    "name": "",
                    "type": "string"
                }
            ],
            "stateMutability": "view",
            "type": "function"
        },
        {
            "inputs": [],
            "name": "date",
            "outputs": [
                {
                    "internalType": "string",
                    "name": "",
                    "type": "string"
                }
            ],
            "stateMutability": "view",
            "type": "function"
        },
        {
            "inputs": [],
            "name": "description",
            "outputs": [
                {
                    "internalType": "string",
                    "name": "",
                    "type": "string"
                }
            ],
            "stateMutability": "view",
            "type": "function"
        },
        {
            "inputs": [
                {
                    "internalType": "uint256",
                    "name": "_ticketId",
                    "type": "uint256"
                }
            ],
            "name": "existTicket",
            "outputs": [
                {
                    "internalType": "bool",
                    "name": "",
                    "type": "bool"
                }
            ],
            "stateMutability": "view",
            "type": "function"
        },
        {
            "inputs": [],
            "name": "getRawSeatTypes",
            "outputs": [
                {
                    "components": [
                        {
                            "internalType": "uint256",
                            "name": "id",
                            "type": "uint256"
                        },
                        {
                            "internalType": "string",
                            "name": "name",
                            "type": "string"
                        },
                        {
                            "internalType": "uint256",
                            "name": "price",
                            "type": "uint256"
                        },
                        {
                            "internalType": "bool",
                            "name": "available",
                            "type": "bool"
                        }
                    ],
                    "internalType": "struct Show.SeatType[]",
                    "name": "",
                    "type": "tuple[]"
                }
            ],
            "stateMutability": "view",
            "type": "function"
        },
        {
            "inputs": [
                {
                    "internalType": "uint256",
                    "name": "_seatTypeId",
                    "type": "uint256"
                }
            ],
            "name": "getRawSeats",
            "outputs": [
                {
                    "components": [
                        {
                            "internalType": "uint256",
                            "name": "id",
                            "type": "uint256"
                        },
                        {
                            "internalType": "string",
                            "name": "name",
                            "type": "string"
                        },
                        {
                            "internalType": "uint256",
                            "name": "ticketId",
                            "type": "uint256"
                        },
                        {
                            "internalType": "bool",
                            "name": "available",
                            "type": "bool"
                        }
                    ],
                    "internalType": "struct Show.Seat[]",
                    "name": "",
                    "type": "tuple[]"
                }
            ],
            "stateMutability": "view",
            "type": "function"
        },
        {
            "inputs": [
                {
                    "internalType": "uint256",
                    "name": "_seatTypeId",
                    "type": "uint256"
                },
                {
                    "internalType": "uint256",
                    "name": "_seatNum",
                    "type": "uint256"
                }
            ],
            "name": "getSeat",
            "outputs": [
                {
                    "components": [
                        {
                            "internalType": "uint256",
                            "name": "id",
                            "type": "uint256"
                        },
                        {
                            "internalType": "string",
                            "name": "name",
                            "type": "string"
                        },
                        {
                            "internalType": "uint256",
                            "name": "ticketId",
                            "type": "uint256"
                        },
                        {
                            "internalType": "bool",
                            "name": "available",
                            "type": "bool"
                        }
                    ],
                    "internalType": "struct Show.Seat",
                    "name": "",
                    "type": "tuple"
                }
            ],
            "stateMutability": "view",
            "type": "function"
        },
        {
            "inputs": [
                {
                    "internalType": "uint256",
                    "name": "_seatTypeId",
                    "type": "uint256"
                },
                {
                    "internalType": "uint256",
                    "name": "_seatNum",
                    "type": "uint256"
                }
            ],
            "name": "getSeatName",
            "outputs": [
                {
                    "internalType": "string",
                    "name": "",
                    "type": "string"
                }
            ],
            "stateMutability": "view",
            "type": "function"
        },
        {
            "inputs": [
                {
                    "internalType": "uint256",
                    "name": "_seatTypeId",
                    "type": "uint256"
                }
            ],
            "name": "getSeatType",
            "outputs": [
                {
                    "components": [
                        {
                            "internalType": "uint256",
                            "name": "id",
                            "type": "uint256"
                        },
                        {
                            "internalType": "string",
                            "name": "name",
                            "type": "string"
                        },
                        {
                            "internalType": "uint256",
                            "name": "price",
                            "type": "uint256"
                        },
                        {
                            "internalType": "bool",
                            "name": "available",
                            "type": "bool"
                        }
                    ],
                    "internalType": "struct Show.SeatType",
                    "name": "",
                    "type": "tuple"
                }
            ],
            "stateMutability": "view",
            "type": "function"
        },
        {
            "inputs": [
                {
                    "internalType": "uint256",
                    "name": "_seatTypeId",
                    "type": "uint256"
                }
            ],
            "name": "getSeatTypePrice",
            "outputs": [
                {
                    "internalType": "uint256",
                    "name": "",
                    "type": "uint256"
                }
            ],
            "stateMutability": "view",
            "type": "function"
        },
        {
            "inputs": [],
            "name": "getSeatTypes",
            "outputs": [
                {
                    "internalType": "uint256[]",
                    "name": "",
                    "type": "uint256[]"
                },
                {
                    "internalType": "string[]",
                    "name": "",
                    "type": "string[]"
                },
                {
                    "internalType": "uint256[]",
                    "name": "",
                    "type": "uint256[]"
                },
                {
                    "internalType": "bool[]",
                    "name": "",
                    "type": "bool[]"
                }
            ],
            "stateMutability": "view",
            "type": "function"
        },
        {
            "inputs": [],
            "name": "getSeatTypesCount",
            "outputs": [
                {
                    "internalType": "uint256",
                    "name": "",
                    "type": "uint256"
                }
            ],
            "stateMutability": "view",
            "type": "function"
        },
        {
            "inputs": [
                {
                    "internalType": "uint256",
                    "name": "_seatTypeId",
                    "type": "uint256"
                }
            ],
            "name": "getSeats",
            "outputs": [
                {
                    "internalType": "uint256[]",
                    "name": "",
                    "type": "uint256[]"
                },
                {
                    "internalType": "string[]",
                    "name": "",
                    "type": "string[]"
                },
                {
                    "internalType": "uint256[]",
                    "name": "",
                    "type": "uint256[]"
                },
                {
                    "internalType": "bool[]",
                    "name": "",
                    "type": "bool[]"
                }
            ],
            "stateMutability": "view",
            "type": "function"
        },
        {
            "inputs": [
                {
                    "internalType": "uint256",
                    "name": "_seatTypeId",
                    "type": "uint256"
                }
            ],
            "name": "getSeatsCount",
            "outputs": [
                {
                    "internalType": "uint256",
                    "name": "",
                    "type": "uint256"
                }
            ],
            "stateMutability": "view",
            "type": "function"
        },
        {
            "inputs": [],
            "name": "getStaffCount",
            "outputs": [
                {
                    "internalType": "uint256",
                    "name": "",
                    "type": "uint256"
                }
            ],
            "stateMutability": "view",
            "type": "function"
        },
        {
            "inputs": [
                {
                    "internalType": "address",
                    "name": "_staff",
                    "type": "address"
                }
            ],
            "name": "getStaffName",
            "outputs": [
                {
                    "internalType": "string",
                    "name": "",
                    "type": "string"
                }
            ],
            "stateMutability": "view",
            "type": "function"
        },
        {
            "inputs": [],
            "name": "getStaffs",
            "outputs": [
                {
                    "internalType": "address[]",
                    "name": "",
                    "type": "address[]"
                }
            ],
            "stateMutability": "view",
            "type": "function"
        },
        {
            "inputs": [
                {
                    "internalType": "uint256",
                    "name": "_ticketId",
                    "type": "uint256"
                }
            ],
            "name": "getTicketInfo",
            "outputs": [
                {
                    "components": [
                        {
                            "internalType": "uint256",
                            "name": "ticketId",
                            "type": "uint256"
                        },
                        {
                            "internalType": "uint256",
                            "name": "showId",
                            "type": "uint256"
                        },
                        {
                            "internalType": "uint256",
                            "name": "seatTypeId",
                            "type": "uint256"
                        },
                        {
                            "internalType": "uint256",
                            "name": "seatNum",
                            "type": "uint256"
                        },
                        {
                            "internalType": "string",
                            "name": "seatName",
                            "type": "string"
                        },
                        {
                            "internalType": "uint256",
                            "name": "price",
                            "type": "uint256"
                        },
                        {
                            "internalType": "string",
                            "name": "date",
                            "type": "string"
                        },
                        {
                            "internalType": "string",
                            "name": "openingTime",
                            "type": "string"
                        },
                        {
                            "internalType": "string",
                            "name": "closingTime",
                            "type": "string"
                        },
                        {
                            "internalType": "enum Ticket.TicketStatus",
                            "name": "status",
                            "type": "uint8"
                        },
                        {
                            "internalType": "address",
                            "name": "buyer",
                            "type": "address"
                        },
                        {
                            "internalType": "string",
                            "name": "buyerName",
                            "type": "string"
                        },
                        {
                            "internalType": "uint256",
                            "name": "createdAt",
                            "type": "uint256"
                        },
                        {
                            "internalType": "uint256",
                            "name": "updatedAt",
                            "type": "uint256"
                        }
                    ],
                    "internalType": "struct Ticket.TicketInfo",
                    "name": "",
                    "type": "tuple"
                }
            ],
            "stateMutability": "view",
            "type": "function"
        },
        {
            "inputs": [],
            "name": "getTradableTickets",
            "outputs": [
                {
                    "components": [
                        {
                            "internalType": "uint256",
                            "name": "ticketId",
                            "type": "uint256"
                        },
                        {
                            "internalType": "uint256",
                            "name": "showId",
                            "type": "uint256"
                        },
                        {
                            "internalType": "uint256",
                            "name": "seatTypeId",
                            "type": "uint256"
                        },
                        {
                            "internalType": "uint256",
                            "name": "seatNum",
                            "type": "uint256"
                        },
                        {
                            "internalType": "string",
                            "name": "seatName",
                            "type": "string"
                        },
                        {
                            "internalType": "uint256",
                            "name": "price",
                            "type": "uint256"
                        },
                        {
                            "internalType": "string",
                            "name": "date",
                            "type": "string"
                        },
                        {
                            "internalType": "string",
                            "name": "openingTime",
                            "type": "string"
                        },
                        {
                            "internalType": "string",
                            "name": "closingTime",
                            "type": "string"
                        },
                        {
                            "internalType": "enum Ticket.TicketStatus",
                            "name": "status",
                            "type": "uint8"
                        },
                        {
                            "internalType": "address",
                            "name": "buyer",
                            "type": "address"
                        },
                        {
                            "internalType": "string",
                            "name": "buyerName",
                            "type": "string"
                        },
                        {
                            "internalType": "uint256",
                            "name": "createdAt",
                            "type": "uint256"
                        },
                        {
                            "internalType": "uint256",
                            "name": "updatedAt",
                            "type": "uint256"
                        }
                    ],
                    "internalType": "struct Ticket.TicketInfo[]",
                    "name": "",
                    "type": "tuple[]"
                }
            ],
            "stateMutability": "view",
            "type": "function"
        },
        {
            "inputs": [],
            "name": "image",
            "outputs": [
                {
                    "internalType": "string",
                    "name": "",
                    "type": "string"
                }
            ],
            "stateMutability": "view",
            "type": "function"
        },
        {
            "inputs": [
                {
                    "internalType": "uint256",
                    "name": "_seatTypeId",
                    "type": "uint256"
                },
                {
                    "internalType": "uint256",
                    "name": "_seatNum",
                    "type": "uint256"
                }
            ],
            "name": "isSeatAvailable",
            "outputs": [
                {
                    "internalType": "bool",
                    "name": "",
                    "type": "bool"
                }
            ],
            "stateMutability": "view",
            "type": "function"
        },
        {
            "inputs": [
                {
                    "internalType": "address",
                    "name": "_staff",
                    "type": "address"
                }
            ],
            "name": "isStaff",
            "outputs": [
                {
                    "internalType": "bool",
                    "name": "",
                    "type": "bool"
                }
            ],
            "stateMutability": "view",
            "type": "function"
        },
        {
            "inputs": [
                {
                    "internalType": "uint256",
                    "name": "_ticketId",
                    "type": "uint256"
                }
            ],
            "name": "offerTicket",
            "outputs": [],
            "stateMutability": "nonpayable",
            "type": "function"
        },
        {
            "inputs": [],
            "name": "openingTime",
            "outputs": [
                {
                    "internalType": "string",
                    "name": "",
                    "type": "string"
                }
            ],
            "stateMutability": "view",
            "type": "function"
        },
        {
            "inputs": [],
            "name": "owner",
            "outputs": [
                {
                    "internalType": "address",
                    "name": "",
                    "type": "address"
                }
            ],
            "stateMutability": "view",
            "type": "function"
        },
        {
            "inputs": [
                {
                    "internalType": "address",
                    "name": "_staff",
                    "type": "address"
                }
            ],
            "name": "removeStaff",
            "outputs": [],
            "stateMutability": "nonpayable",
            "type": "function"
        },
        {
            "inputs": [
                {
                    "internalType": "uint256",
                    "name": "",
                    "type": "uint256"
                }
            ],
            "name": "seatTypes",
            "outputs": [
                {
                    "internalType": "uint256",
                    "name": "id",
                    "type": "uint256"
                },
                {
                    "internalType": "string",
                    "name": "name",
                    "type": "string"
                },
                {
                    "internalType": "uint256",
                    "name": "price",
                    "type": "uint256"
                },
                {
                    "internalType": "bool",
                    "name": "available",
                    "type": "bool"
                }
            ],
            "stateMutability": "view",
            "type": "function"
        },
        {
            "inputs": [
                {
                    "internalType": "uint256",
                    "name": "",
                    "type": "uint256"
                },
                {
                    "internalType": "uint256",
                    "name": "",
                    "type": "uint256"
                }
            ],
            "name": "seats",
            "outputs": [
                {
                    "internalType": "uint256",
                    "name": "id",
                    "type": "uint256"
                },
                {
                    "internalType": "string",
                    "name": "name",
                    "type": "string"
                },
                {
                    "internalType": "uint256",
                    "name": "ticketId",
                    "type": "uint256"
                },
                {
                    "internalType": "bool",
                    "name": "available",
                    "type": "bool"
                }
            ],
            "stateMutability": "view",
            "type": "function"
        },
        {
            "inputs": [
                {
                    "internalType": "uint256",
                    "name": "_maxSeatTypes",
                    "type": "uint256"
                }
            ],
            "name": "setMaxSeatTypes",
            "outputs": [],
            "stateMutability": "nonpayable",
            "type": "function"
        },
        {
            "inputs": [
                {
                    "internalType": "uint256",
                    "name": "_maxSeats",
                    "type": "uint256"
                }
            ],
            "name": "setMaxSeats",
            "outputs": [],
            "stateMutability": "nonpayable",
            "type": "function"
        },
        {
            "inputs": [
                {
                    "internalType": "uint256",
                    "name": "_maxStaffs",
                    "type": "uint256"
                }
            ],
            "name": "setMaxStaffs",
            "outputs": [],
            "stateMutability": "nonpayable",
            "type": "function"
        },
        {
            "inputs": [],
            "name": "setShowScheduled",
            "outputs": [],
            "stateMutability": "nonpayable",
            "type": "function"
        },
        {
            "inputs": [],
            "name": "showId",
            "outputs": [
                {
                    "internalType": "uint256",
                    "name": "",
                    "type": "uint256"
                }
            ],
            "stateMutability": "view",
            "type": "function"
        },
        {
            "inputs": [],
            "name": "status",
            "outputs": [
                {
                    "internalType": "enum Show.Status",
                    "name": "",
                    "type": "uint8"
                }
            ],
            "stateMutability": "view",
            "type": "function"
        },
        {
            "inputs": [],
            "name": "title",
            "outputs": [
                {
                    "internalType": "string",
                    "name": "",
                    "type": "string"
                }
            ],
            "stateMutability": "view",
            "type": "function"
        },
        {
            "inputs": [
                {
                    "internalType": "address",
                    "name": "_newOwner",
                    "type": "address"
                }
            ],
            "name": "transferOwnershipTo",
            "outputs": [],
            "stateMutability": "nonpayable",
            "type": "function"
        },
        {
            "inputs": [
                {
                    "internalType": "uint256",
                    "name": "_ticketId",
                    "type": "uint256"
                }
            ],
            "name": "unofferTicket",
            "outputs": [],
            "stateMutability": "nonpayable",
            "type": "function"
        },
        {
            "inputs": [
                {
                    "internalType": "string",
                    "name": "_closingTime",
                    "type": "string"
                }
            ],
            "name": "updateClosingTime",
            "outputs": [],
            "stateMutability": "nonpayable",
            "type": "function"
        },
        {
            "inputs": [
                {
                    "internalType": "string",
                    "name": "_date",
                    "type": "string"
                }
            ],
            "name": "updateDate",
            "outputs": [],
            "stateMutability": "nonpayable",
            "type": "function"
        },
        {
            "inputs": [
                {
                    "internalType": "string",
                    "name": "_description",
                    "type": "string"
                }
            ],
            "name": "updateDescription",
            "outputs": [],
            "stateMutability": "nonpayable",
            "type": "function"
        },
        {
            "inputs": [
                {
                    "internalType": "string",
                    "name": "_image",
                    "type": "string"
                }
            ],
            "name": "updateImage",
            "outputs": [],
            "stateMutability": "nonpayable",
            "type": "function"
        },
        {
            "inputs": [
                {
                    "internalType": "string",
                    "name": "_openingTime",
                    "type": "string"
                }
            ],
            "name": "updateOpeningTime",
            "outputs": [],
            "stateMutability": "nonpayable",
            "type": "function"
        },
        {
            "inputs": [
                {
                    "internalType": "uint256",
                    "name": "_seatTypeId",
                    "type": "uint256"
                },
                {
                    "internalType": "uint256",
                    "name": "_seatNum",
                    "type": "uint256"
                },
                {
                    "internalType": "bool",
                    "name": "_available",
                    "type": "bool"
                }
            ],
            "name": "updateSeatAvailability",
            "outputs": [],
            "stateMutability": "nonpayable",
            "type": "function"
        },
        {
            "inputs": [
                {
                    "internalType": "uint256",
                    "name": "_seatTypeId",
                    "type": "uint256"
                },
                {
                    "internalType": "uint256",
                    "name": "_seatNum",
                    "type": "uint256"
                },
                {
                    "internalType": "string",
                    "name": "_name",
                    "type": "string"
                }
            ],
            "name": "updateSeatName",
            "outputs": [],
            "stateMutability": "nonpayable",
            "type": "function"
        },
        {
            "inputs": [
                {
                    "internalType": "uint256",
                    "name": "_seatTypeId",
                    "type": "uint256"
                },
                {
                    "internalType": "bool",
                    "name": "_available",
                    "type": "bool"
                }
            ],
            "name": "updateSeatTypeAvailability",
            "outputs": [],
            "stateMutability": "nonpayable",
            "type": "function"
        },
        {
            "inputs": [
                {
                    "internalType": "uint256",
                    "name": "_seatTypeId",
                    "type": "uint256"
                },
                {
                    "internalType": "string",
                    "name": "_name",
                    "type": "string"
                }
            ],
            "name": "updateSeatTypeName",
            "outputs": [],
            "stateMutability": "nonpayable",
            "type": "function"
        },
        {
            "inputs": [
                {
                    "internalType": "uint256",
                    "name": "_seatTypeId",
                    "type": "uint256"
                },
                {
                    "internalType": "uint256",
                    "name": "_price",
                    "type": "uint256"
                }
            ],
            "name": "updateSeatTypePrice",
            "outputs": [],
            "stateMutability": "nonpayable",
            "type": "function"
        },
        {
            "inputs": [
                {
                    "internalType": "string",
                    "name": "_title",
                    "type": "string"
                }
            ],
            "name": "updateTitle",
            "outputs": [],
            "stateMutability": "nonpayable",
            "type": "function"
        },
        {
            "inputs": [],
            "name": "withdraw",
            "outputs": [],
            "stateMutability": "nonpayable",
            "type": "function"
        }
    ],
    "bytecode": {
        "object": "0x6080604052610100600d55611400600e55610400600f553480156200002357600080fd5b5060405162009a5438038062009a5483398101604081905262000046916200029b565b600080546001600160a01b0319166001600160a01b038a161790556003879055600462000074878262000450565b50600562000083868262000450565b50600662000092858262000450565b506007620000a1848262000450565b506008620000b0838262000450565b506009620000bf828262000450565b50600a805460ff191690556040513090620000da9062000195565b6001600160a01b039091168152602001604051809103906000f08015801562000107573d6000803e3d6000fd5b50600180546001600160a01b0319166001600160a01b039290921691909117905560405130906200013890620001a3565b6001600160a01b039091168152602001604051809103906000f08015801562000165573d6000803e3d6000fd5b50600280546001600160a01b0319166001600160a01b0392909216919091179055506200051c9650505050505050565b613813806200571f83390190565b610b228062008f3283390190565b80516001600160a01b0381168114620001c957600080fd5b919050565b634e487b7160e01b600052604160045260246000fd5b600082601f830112620001f657600080fd5b81516001600160401b0380821115620002135762000213620001ce565b604051601f8301601f19908116603f011681019082821181831017156200023e576200023e620001ce565b816040528381526020925086838588010111156200025b57600080fd5b600091505b838210156200027f578582018301518183018401529082019062000260565b83821115620002915760008385830101525b9695505050505050565b600080600080600080600080610100898b031215620002b957600080fd5b620002c489620001b1565b60208a015160408b015191995097506001600160401b0380821115620002e957600080fd5b620002f78c838d01620001e4565b975060608b01519150808211156200030e57600080fd5b6200031c8c838d01620001e4565b965060808b01519150808211156200033357600080fd5b620003418c838d01620001e4565b955060a08b01519150808211156200035857600080fd5b620003668c838d01620001e4565b945060c08b01519150808211156200037d57600080fd5b6200038b8c838d01620001e4565b935060e08b0151915080821115620003a257600080fd5b50620003b18b828c01620001e4565b9150509295985092959890939650565b600181811c90821680620003d657607f821691505b602082108103620003f757634e487b7160e01b600052602260045260246000fd5b50919050565b601f8211156200044b57600081815260208120601f850160051c81016020861015620004265750805b601f850160051c820191505b81811015620004475782815560010162000432565b5050505b505050565b81516001600160401b038111156200046c576200046c620001ce565b62000484816200047d8454620003c1565b84620003fd565b602080601f831160018114620004bc5760008415620004a35750858301515b600019600386901b1c1916600185901b17855562000447565b600085815260208120601f198616915b82811015620004ed57888601518255948401946001909101908401620004cc565b50858210156200050c5787850151600019600388901b60f8161c191681555b5050505050600190811b01905550565b6151f3806200052c6000396000f3fe6080604052600436106103ad5760003560e01c806390e8042e116101e7578063d00554e81161010d578063f024ec26116100a0578063f9ddb4a51161006f578063f9ddb4a514610ace578063fbb6e55d14610aee578063fd99bddd14610b0e578063ff99a06314610b2e57600080fd5b8063f024ec2614610a57578063f3ccaac014610a77578063f67e15ba14610a8c578063f86d347414610aae57600080fd5b8063e95a644f116100dc578063e95a644f146109d7578063eb3d68e7146109f7578063ee355b1f14610a17578063eec2ff1b14610a3757600080fd5b8063d00554e814610955578063d4bb9ca614610975578063e42705e714610995578063e735b48a146109b757600080fd5b8063b7a8807c11610185578063c4522c9211610154578063c4522c92146108c8578063cb510e97146108e8578063ceec2f9514610908578063cf1a05e21461092857600080fd5b8063b7a8807c1461085e578063b90c167114610873578063b99b070314610893578063c22f9c18146108a857600080fd5b8063955f204b116101c1578063955f204b146107d957806399c84bd3146107f9578063b39e54f41461080e578063b6cd04f01461083e57600080fd5b806390e8042e1461078e57806392777edf146107a357806394c2c24f146107c357600080fd5b80633ec5c458116102d757806352effe111161026a578063771300691161023957806377130069146106e95780637ef2127d1461070957806381f7c1ce146107295780638da5cb5b1461075657600080fd5b806352effe111461067e5780635357306a1461069e5780636e39db53146106be5780637284e416146106d457600080fd5b8063469498c1116102a6578063469498c11461061e5780634a79d50c1461063e5780634b6753bc146106535780634dfd39f51461066857600080fd5b80633ec5c458146105a95780634275d5a8146105c9578063432c81a4146105de57806343c5d3d4146105fe57600080fd5b80632013e0d51161034f57806337fb13b01161031e57806337fb13b0146105315780633ccfd60b146105515780633cdc6536146105665780633e98d9a91461057957600080fd5b80632013e0d5146104925780632284312a146104c2578063323046b1146104e2578063324c7e1a1461050457600080fd5b8063186698791161038b57806318669879146104185780631be56e9b146104385780631d6916ab14610458578063200d2ed21461046b57600080fd5b806304c870dc146103b257806309f21096146103dd5780630b519f6914610401575b600080fd5b3480156103be57600080fd5b506103c7610b5b565b6040516103d491906140e8565b60405180910390f35b3480156103e957600080fd5b506103f360035481565b6040519081526020016103d4565b34801561040d57600080fd5b50610416610bd2565b005b34801561042457600080fd5b50610416610433366004614146565b610ea4565b34801561044457600080fd5b5061041661045336600461426b565b610f90565b6103f36104663660046142b1565b6111a6565b34801561047757600080fd5b50600a546104859060ff1681565b6040516103d49190614316565b34801561049e57600080fd5b506104b26104ad366004614330565b611649565b6040516103d49493929190614412565b3480156104ce57600080fd5b506103f36104dd3660046144ac565b6119ec565b3480156104ee57600080fd5b506104f7611be9565b6040516103d491906144f0565b34801561051057600080fd5b5061052461051f366004614503565b611c77565b6040516103d49190614566565b34801561053d57600080fd5b5061041661054c366004614579565b611e12565b34801561055d57600080fd5b50610416611e4c565b6103f361057436600461426b565b611ee0565b34801561058557600080fd5b50610599610594366004614330565b6121d8565b60405190151581526020016103d4565b3480156105b557600080fd5b506105996105c4366004614503565b61224d565b3480156105d557600080fd5b50610416612306565b3480156105ea57600080fd5b506104166105f9366004614330565b6123da565b34801561060a57600080fd5b50610524610619366004614330565b612479565b34801561062a57600080fd5b506104166106393660046142b1565b6125b4565b34801561064a57600080fd5b506104f7612832565b34801561065f57600080fd5b506104f761283f565b34801561067457600080fd5b506103f3600f5481565b34801561068a57600080fd5b506104166106993660046145ca565b61284c565b3480156106aa57600080fd5b506103f36106b9366004614330565b612898565b3480156106ca57600080fd5b506103f3600d5481565b3480156106e057600080fd5b506104f76128d2565b3480156106f557600080fd5b506104f76107043660046145ca565b6128df565b34801561071557600080fd5b50610416610724366004614330565b612952565b34801561073557600080fd5b50610749610744366004614330565b6129c0565b6040516103d491906145e7565b34801561076257600080fd5b50600054610776906001600160a01b031681565b6040516001600160a01b0390911681526020016103d4565b34801561079a57600080fd5b50600b546103f3565b3480156107af57600080fd5b506104166107be366004614579565b612b08565b3480156107cf57600080fd5b506103f3600e5481565b3480156107e557600080fd5b506104166107f4366004614330565b612b3e565b34801561080557600080fd5b506104b2612b6d565b34801561081a57600080fd5b5061082e610829366004614330565b612e78565b6040516103d49493929190614649565b34801561084a57600080fd5b50610416610859366004614330565b612f40565b34801561086a57600080fd5b506104f7612f6f565b34801561087f57600080fd5b5061041661088e366004614579565b612f7c565b34801561089f57600080fd5b506103f3612fb2565b3480156108b457600080fd5b506104166108c3366004614503565b613020565b3480156108d457600080fd5b506104166108e33660046145ca565b6130bd565b3480156108f457600080fd5b506105996109033660046145ca565b6130ef565b34801561091457600080fd5b506103f361092336600461426b565b613122565b34801561093457600080fd5b506109486109433660046146c5565b6132c7565b6040516103d49190614730565b34801561096157600080fd5b506104f7610970366004614503565b61352f565b34801561098157600080fd5b50610416610990366004614579565b61366c565b3480156109a157600080fd5b506109aa6136a2565b6040516103d49190614743565b3480156109c357600080fd5b506104166109d2366004614579565b6137bc565b3480156109e357600080fd5b506104166109f2366004614330565b6137f2565b348015610a0357600080fd5b50610416610a12366004614579565b61390d565b348015610a2357600080fd5b50610416610a32366004614330565b613943565b348015610a4357600080fd5b5061082e610a52366004614503565b613a53565b348015610a6357600080fd5b50610416610a72366004614798565b613a99565b348015610a8357600080fd5b506104f7613af9565b348015610a9857600080fd5b50610aa1613b06565b6040516103d491906148e4565b348015610aba57600080fd5b50610416610ac9366004614330565b613cb5565b348015610ada57600080fd5b50610948610ae9366004614939565b613ce4565b348015610afa57600080fd5b50610416610b09366004614984565b613ed0565b348015610b1a57600080fd5b506103f3610b29366004614330565b613f58565b348015610b3a57600080fd5b50610b4e610b49366004614330565b613fab565b6040516103d491906149b4565b600254604080516301321c3760e21b815290516060926001600160a01b0316916304c870dc9160048083019260009291908290030181865afa158015610ba5573d6000803e3d6000fd5b505050506040513d6000823e601f3d908101601f19168201604052610bcd91908101906149fa565b905090565b6000546001600160a01b03163314610bfc576040516282b42960e81b815260040160405180910390fd5b6001600a5460ff166003811115610c1557610c15614300565b14610c33576040516304a8e0fb60e01b815260040160405180910390fd5b600a805460ff1916600317905560005b600b54811015610e105760008190506000600b8281548110610c6757610c67614a88565b60009182526020822060049190910201600301805460ff1916921515929092179091555b6000828152600c6020526040902054811015610dfb576000828152600c6020526040812080548392919083908110610cc557610cc5614a88565b906000526020600020906004020160020154905080600014610de657600154604051600162665f9d60e01b03198152600481018390526000916001600160a01b03169063ff99a06390602401600060405180830381865afa158015610d2e573d6000803e3d6000fd5b505050506040513d6000823e601f3d908101601f19168201604052610d569190810190614af2565b905060008160a00151905060008261014001516001600160a01b03168260405160006040518083038185875af1925050503d8060008114610db3576040519150601f19603f3d011682016040523d82523d6000602084013e610db8565b606091505b5050905080610de25760405162461bcd60e51b8152600401610dd990614c63565b60405180910390fd5b5050505b50508080610df390614ca7565b915050610c8b565b50508080610e0890614ca7565b915050610c43565b50600160009054906101000a90046001600160a01b03166001600160a01b03166347f2ddee6040518163ffffffff1660e01b8152600401600060405180830381600087803b158015610e6157600080fd5b505af1158015610e75573d6000803e3d6000fd5b50506040517feab2d0617a658967b82f4e56b674ee7f5394c96b60279185f458f2d3c14214e3925060009150a1565b6000546001600160a01b03163314610ece576040516282b42960e81b815260040160405180910390fd5b600b5483908110610ef15760405162461bcd60e51b8152600401610dd990614cc0565b600b54849084908210610f165760405162461bcd60e51b8152600401610dd990614cc0565b6000828152600c60205260409020548110610f435760405162461bcd60e51b8152600401610dd990614cf7565b6000868152600c60205260409020805485919087908110610f6657610f66614a88565b60009182526020909120600490910201600301805460ff1916911515919091179055505050505050565b6000546001600160a01b03163314610fba576040516282b42960e81b815260040160405180910390fd5b600b5482908110610fdd5760405162461bcd60e51b8152600401610dd990614cc0565b816000610fe8825190565b118015610ffd57506040610ffa825190565b11155b6110495760405162461bcd60e51b815260206004820152601b60248201527f536561742074797065206e616d65206973206e6f742076616c696400000000006044820152606401610dd9565b8260005b600b5481101561116c5761110d600b828154811061106d5761106d614a88565b9060005260206000209060040201600101805461108990614d24565b80601f01602080910402602001604051908101604052809291908181526020018280546110b590614d24565b80156111025780601f106110d757610100808354040283529160200191611102565b820191906000526020600020905b8154815290600101906020018083116110e557829003601f168201915b505050505083614027565b1561115a5760405162461bcd60e51b815260206004820152601b60248201527f536561742074797065206e616d6520616c7265616479207573656400000000006044820152606401610dd9565b8061116481614ca7565b91505061104d565b5083600b868154811061118157611181614a88565b9060005260206000209060040201600101908161119e9190614d9e565b505050505050565b60006001600a5460ff1660038111156111c1576111c1614300565b146111df576040516304a8e0fb60e01b815260040160405180910390fd5b600b54849081106112025760405162461bcd60e51b8152600401610dd990614cc0565b600b818154811061121557611215614a88565b600091825260209091206003600490920201015460ff166112785760405162461bcd60e51b815260206004820152601a60248201527f536561742074797065206973206e6f7420617661696c61626c650000000000006044820152606401610dd9565b6000600b828154811061128d5761128d614a88565b906000526020600020906004020160020154116112bc5760405162461bcd60e51b8152600401610dd990614e5d565b600b548590859082106112e15760405162461bcd60e51b8152600401610dd990614cc0565b6000828152600c6020526040902054811061130e5760405162461bcd60e51b8152600401610dd990614cf7565b6000828152600c6020526040902080548290811061132e5761132e614a88565b600091825260209091206003600490920201015460ff166113895760405162461bcd60e51b815260206004820152601560248201527453656174206973206e6f7420617661696c61626c6560581b6044820152606401610dd9565b33806113a75760405162461bcd60e51b8152600401610dd990614e89565b306001600160a01b038216036113cf5760405162461bcd60e51b8152600401610dd990614e89565b6113d888613f58565b8034101561141c5760405162461bcd60e51b81526020600482015260116024820152702737ba1032b737bab3b43a1032ba3432b960791b6044820152606401610dd9565b6000898152600c6020526040812080548a90811061143c5761143c614a88565b60009182526020808320600492909202909101600301805460ff1916931515939093179092556001548b8252600c90925260408120805491926001600160a01b0316916331959257918d918d91908290811061149a5761149a614a88565b9060005260206000209060040201600101600b8f815481106114be576114be614a88565b9060005260206000209060040201600201548d336040518763ffffffff1660e01b81526004016114f396959493929190614f3d565b6020604051808303816000875af1158015611512573d6000803e3d6000fd5b505050506040513d601f19601f820116820180604052508101906115369190614f90565b60008b8152600c60205260409020805491925082918b90811061155b5761155b614a88565b906000526020600020906004020160020181905550600b8a8154811061158357611583614a88565b90600052602060002090600402016002015434111561163c576000600b8b815481106115b1576115b1614a88565b906000526020600020906004020160020154346115ce9190614fa9565b604051909150600090339083908381818185875af1925050503d8060008114611613576040519150601f19603f3d011682016040523d82523d6000602084013e611618565b606091505b50509050806116395760405162461bcd60e51b8152600401610dd990614c63565b50505b9998505050505050505050565b60608060608084600b8054905081106116745760405162461bcd60e51b8152600401610dd990614cc0565b6000868152600c60205260408120546001600160401b0381111561169a5761169a61417f565b6040519080825280602002602001820160405280156116c3578160200160208202803683370190505b506000888152600c6020526040812054919250906001600160401b038111156116ee576116ee61417f565b60405190808252806020026020018201604052801561172157816020015b606081526020019060019003908161170c5790505b506000898152600c6020526040812054919250906001600160401b0381111561174c5761174c61417f565b604051908082528060200260200182016040528015611775578160200160208202803683370190505b5060008a8152600c6020526040812054919250906001600160401b038111156117a0576117a061417f565b6040519080825280602002602001820160405280156117c9578160200160208202803683370190505b50905060005b60008b8152600c60205260409020548110156119db5760008b8152600c6020526040902080548290811061180557611805614a88565b90600052602060002090600402016000015485828151811061182957611829614a88565b602002602001018181525050600c60008c8152602001908152602001600020818154811061185957611859614a88565b9060005260206000209060040201600101805461187590614d24565b80601f01602080910402602001604051908101604052809291908181526020018280546118a190614d24565b80156118ee5780601f106118c3576101008083540402835291602001916118ee565b820191906000526020600020905b8154815290600101906020018083116118d157829003601f168201915b505050505084828151811061190557611905614a88565b6020026020010181905250600c60008c8152602001908152602001600020818154811061193457611934614a88565b90600052602060002090600402016002015483828151811061195857611958614a88565b602002602001018181525050600c60008c8152602001908152602001600020818154811061198857611988614a88565b906000526020600020906004020160030160009054906101000a900460ff168282815181106119b9576119b9614a88565b91151560209283029190910190910152806119d381614ca7565b9150506117cf565b509299919850965090945092505050565b600080546001600160a01b03163314611a17576040516282b42960e81b815260040160405180910390fd5b826000611a22825190565b118015611a3757506040611a34825190565b11155b611a835760405162461bcd60e51b815260206004820152601b60248201527f536561742074797065206e616d65206973206e6f742076616c696400000000006044820152606401610dd9565b8360005b600b54811015611b0657611aa7600b828154811061106d5761106d614a88565b15611af45760405162461bcd60e51b815260206004820152601b60248201527f536561742074797065206e616d6520616c7265616479207573656400000000006044820152606401610dd9565b80611afe81614ca7565b915050611a87565b508360008111611b285760405162461bcd60e51b8152600401610dd990614e5d565b600b805460408051608081018252828152602081018a8152918101899052600160608201819052830184556000939093528251600483027f0175b7a638427703f0dbe7bb9bbf987a2551717b34e79f33b5b1008d1fa01db98101918255915192939283927f0175b7a638427703f0dbe7bb9bbf987a2551717b34e79f33b5b1008d1fa01dba0190611bb99082614d9e565b50604082015160028201556060909101516003909101805460ff1916911515919091179055509695505050505050565b60078054611bf690614d24565b80601f0160208091040260200160405190810160405280929190818152602001828054611c2290614d24565b8015611c6f5780601f10611c4457610100808354040283529160200191611c6f565b820191906000526020600020905b815481529060010190602001808311611c5257829003601f168201915b505050505081565b611ca460405180608001604052806000815260200160608152602001600081526020016000151581525090565b600b5483908110611cc75760405162461bcd60e51b8152600401610dd990614cc0565b600b54849084908210611cec5760405162461bcd60e51b8152600401610dd990614cc0565b6000828152600c60205260409020548110611d195760405162461bcd60e51b8152600401610dd990614cf7565b6000868152600c60205260409020805486908110611d3957611d39614a88565b906000526020600020906004020160405180608001604052908160008201548152602001600182018054611d6c90614d24565b80601f0160208091040260200160405190810160405280929190818152602001828054611d9890614d24565b8015611de55780601f10611dba57610100808354040283529160200191611de5565b820191906000526020600020905b815481529060010190602001808311611dc857829003601f168201915b50505091835250506002820154602082015260039091015460ff1615156040909101529695505050505050565b6000546001600160a01b03163314611e3c576040516282b42960e81b815260040160405180910390fd5b6004611e488282614d9e565b5050565b6000546001600160a01b03163314611e76576040516282b42960e81b815260040160405180910390fd5b6040514790600090339083908381818185875af1925050503d8060008114611eba576040519150601f19603f3d011682016040523d82523d6000602084013e611ebf565b606091505b5050905080611e485760405162461bcd60e51b8152600401610dd990614c63565b60006001600a5460ff166003811115611efb57611efb614300565b14611f19576040516304a8e0fb60e01b815260040160405180910390fd5b3380611f375760405162461bcd60e51b8152600401610dd990614e89565b306001600160a01b03821603611f5f5760405162461bcd60e51b8152600401610dd990614e89565b60015460405163f06fc96160e01b8152600481018690526001600160a01b039091169063f06fc96190602401602060405180830381865afa158015611fa8573d6000803e3d6000fd5b505050506040513d601f19601f82011682018060405250810190611fcc9190614f90565b803410156120105760405162461bcd60e51b81526020600482015260116024820152702737ba1032b737bab3b43a1032ba3432b960791b6044820152606401610dd9565b600154604051600162665f9d60e01b03198152600481018790526000916001600160a01b03169063ff99a06390602401600060405180830381865afa15801561205d573d6000803e3d6000fd5b505050506040513d6000823e601f3d908101601f191682016040526120859190810190614af2565b600154604051638e3cf24760e01b81529192506000916001600160a01b0390911690638e3cf247906120bf908a9033908b90600401614fc0565b6020604051808303816000875af11580156120de573d6000803e3d6000fd5b505050506040513d601f19601f820116820180604052508101906121029190614f90565b6040808401516000908152600c60205220606084015181549293508392811061212d5761212d614a88565b9060005260206000209060040201600201819055508160a001513411156121ce5760008260a00151346121609190614fa9565b604051909150600090339083908381818185875af1925050503d80600081146121a5576040519150601f19603f3d011682016040523d82523d6000602084013e6121aa565b606091505b50509050806121cb5760405162461bcd60e51b8152600401610dd990614c63565b50505b9695505050505050565b600154604051633e98d9a960e01b8152600481018390526000916001600160a01b031690633e98d9a9906024015b602060405180830381865afa158015612223573d6000803e3d6000fd5b505050506040513d601f19601f820116820180604052508101906122479190614ff3565b92915050565b600b54600090839081106122735760405162461bcd60e51b8152600401610dd990614cc0565b600b548490849082106122985760405162461bcd60e51b8152600401610dd990614cc0565b6000828152600c602052604090205481106122c55760405162461bcd60e51b8152600401610dd990614cf7565b6000868152600c602052604090208054869081106122e5576122e5614a88565b600091825260209091206004909102016003015460ff169695505050505050565b6000546001600160a01b03163314612330576040516282b42960e81b815260040160405180910390fd5b6000600a5460ff16600381111561234957612349614300565b1461238c5760405162461bcd60e51b815260206004820152601360248201527253686f77206973206e6f742070656e64696e6760681b6044820152606401610dd9565b600a805460ff191660011790556003546040517fe260a55e5b5ad8159fbaaf901190c191c067308ad7e7f0274c0829054fb91e30906123d090600490600790615010565b60405180910390a2565b6001600a5460ff1660038111156123f3576123f3614300565b14612411576040516304a8e0fb60e01b815260040160405180910390fd5b6001546040516332e1d93d60e21b8152336004820152602481018390526001600160a01b039091169063cb8764f4906044015b600060405180830381600087803b15801561245e57600080fd5b505af1158015612472573d6000803e3d6000fd5b5050505050565b6124a660405180608001604052806000815260200160608152602001600081526020016000151581525090565b600b54829081106124c95760405162461bcd60e51b8152600401610dd990614cc0565b600b83815481106124dc576124dc614a88565b90600052602060002090600402016040518060800160405290816000820154815260200160018201805461250f90614d24565b80601f016020809104026020016040519081016040528092919081815260200182805461253b90614d24565b80156125885780601f1061255d57610100808354040283529160200191612588565b820191906000526020600020905b81548152906001019060200180831161256b57829003601f168201915b50505091835250506002820154602082015260039091015460ff16151560409091015291505b50919050565b6000546001600160a01b031633146125de576040516282b42960e81b815260040160405180910390fd5b600b54839081106126015760405162461bcd60e51b8152600401610dd990614cc0565b600b548490849082106126265760405162461bcd60e51b8152600401610dd990614cc0565b6000828152600c602052604090205481106126535760405162461bcd60e51b8152600401610dd990614cf7565b83600061265e825190565b11801561267357506040612670825190565b11155b61268f5760405162461bcd60e51b8152600401610dd990615035565b8460005b600b548110156127e65760005b6000828152600c60205260409020548110156127d3576000828152600c60205260409020805461277b9190839081106126db576126db614a88565b906000526020600020906004020160010180546126f790614d24565b80601f016020809104026020016040519081016040528092919081815260200182805461272390614d24565b80156127705780601f1061274557610100808354040283529160200191612770565b820191906000526020600020905b81548152906001019060200180831161275357829003601f168201915b505050505084614027565b156127c15760405162461bcd60e51b815260206004820152601660248201527514d9585d081b985b5948185b1c9958591e481d5cd95960521b6044820152606401610dd9565b806127cb81614ca7565b9150506126a0565b50806127de81614ca7565b915050612693565b506000888152600c6020526040902080548791908990811061280a5761280a614a88565b906000526020600020906004020160010190816128279190614d9e565b505050505050505050565b60048054611bf690614d24565b60098054611bf690614d24565b6000546001600160a01b03163314612876576040516282b42960e81b815260040160405180910390fd5b600080546001600160a01b0319166001600160a01b0392909216919091179055565b600b54600090829081106128be5760405162461bcd60e51b8152600401610dd990614cc0565b50506000908152600c602052604090205490565b60058054611bf690614d24565b600254604051637713006960e01b81526001600160a01b0383811660048301526060921690637713006990602401600060405180830381865afa15801561292a573d6000803e3d6000fd5b505050506040513d6000823e601f3d908101601f191682016040526122479190810190615082565b6001600a5460ff16600381111561296b5761296b614300565b14612989576040516304a8e0fb60e01b815260040160405180910390fd5b600154604051633aaafd4160e11b8152336004820152602481018390526001600160a01b0390911690637555fa8290604401612444565b600b54606090829081106129e65760405162461bcd60e51b8152600401610dd990614cc0565b6000838152600c6020908152604080832080548251818502810185019093528083529193909284015b82821015612afc578382906000526020600020906004020160405180608001604052908160008201548152602001600182018054612a4c90614d24565b80601f0160208091040260200160405190810160405280929190818152602001828054612a7890614d24565b8015612ac55780601f10612a9a57610100808354040283529160200191612ac5565b820191906000526020600020905b815481529060010190602001808311612aa857829003601f168201915b5050509183525050600282015460208083019190915260039092015460ff1615156040909101529082526001929092019101612a0f565b50505050915050919050565b6000546001600160a01b03163314612b32576040516282b42960e81b815260040160405180910390fd5b6009611e488282614d9e565b6000546001600160a01b03163314612b68576040516282b42960e81b815260040160405180910390fd5b600d55565b6060806060806000600b805490506001600160401b03811115612b9257612b9261417f565b604051908082528060200260200182016040528015612bbb578160200160208202803683370190505b50600b549091506000906001600160401b03811115612bdc57612bdc61417f565b604051908082528060200260200182016040528015612c0f57816020015b6060815260200190600190039081612bfa5790505b50600b549091506000906001600160401b03811115612c3057612c3061417f565b604051908082528060200260200182016040528015612c59578160200160208202803683370190505b50600b549091506000906001600160401b03811115612c7a57612c7a61417f565b604051908082528060200260200182016040528015612ca3578160200160208202803683370190505b50905060005b600b54811015612e6957600b8181548110612cc657612cc6614a88565b906000526020600020906004020160000154858281518110612cea57612cea614a88565b602002602001018181525050600b8181548110612d0957612d09614a88565b90600052602060002090600402016001018054612d2590614d24565b80601f0160208091040260200160405190810160405280929190818152602001828054612d5190614d24565b8015612d9e5780601f10612d7357610100808354040283529160200191612d9e565b820191906000526020600020905b815481529060010190602001808311612d8157829003601f168201915b5050505050848281518110612db557612db5614a88565b6020026020010181905250600b8181548110612dd357612dd3614a88565b906000526020600020906004020160020154838281518110612df757612df7614a88565b602002602001018181525050600b8181548110612e1657612e16614a88565b906000526020600020906004020160030160009054906101000a900460ff16828281518110612e4757612e47614a88565b9115156020928302919091019091015280612e6181614ca7565b915050612ca9565b50929791965094509092509050565b600b8181548110612e8857600080fd5b60009182526020909120600490910201805460018201805491935090612ead90614d24565b80601f0160208091040260200160405190810160405280929190818152602001828054612ed990614d24565b8015612f265780601f10612efb57610100808354040283529160200191612f26565b820191906000526020600020905b815481529060010190602001808311612f0957829003601f168201915b50505050600283015460039093015491929160ff16905084565b6000546001600160a01b03163314612f6a576040516282b42960e81b815260040160405180910390fd5b600f55565b60088054611bf690614d24565b6000546001600160a01b03163314612fa6576040516282b42960e81b815260040160405180910390fd5b6007611e488282614d9e565b6002546040805163b99b070360e01b815290516000926001600160a01b03169163b99b07039160048083019260209291908290030181865afa158015612ffc573d6000803e3d6000fd5b505050506040513d601f19601f82011682018060405250810190610bcd9190614f90565b6000546001600160a01b0316331461304a576040516282b42960e81b815260040160405180910390fd5b600b548290811061306d5760405162461bcd60e51b8152600401610dd990614cc0565b816000811161308e5760405162461bcd60e51b8152600401610dd990614e5d565b82600b85815481106130a2576130a2614a88565b90600052602060002090600402016002018190555050505050565b600254604051636229164960e11b81526001600160a01b0383811660048301529091169063c4522c9290602401612444565b60025460405163cb510e9760e01b81526001600160a01b038381166004830152600092169063cb510e9790602401612206565b600080546001600160a01b0316331461314d576040516282b42960e81b815260040160405180910390fd5b600b54839081106131705760405162461bcd60e51b8152600401610dd990614cc0565b82600061317b825190565b1180156131905750604061318d825190565b11155b6131ac5760405162461bcd60e51b8152600401610dd990615035565b8360005b600b548110156132635760005b6000828152600c6020526040902054811015613250576000828152600c6020526040902080546131f89190839081106126db576126db614a88565b1561323e5760405162461bcd60e51b815260206004820152601660248201527514d9585d081b985b5948185b1c9958591e481d5cd95960521b6044820152606401610dd9565b8061324881614ca7565b9150506131bd565b508061325b81614ca7565b9150506131b0565b506000868152600c60208181526040808420805482516080810184528181528085018c81529381018790526001606082018190529585528582018355918652929094208451600484029091019081559051919392839290820190611bb99082614d9e565b6000546060906001600160a01b031633146132f4576040516282b42960e81b815260040160405180910390fd5b600d54600b548591906133089083906150b6565b11156133565760405162461bcd60e51b815260206004820181905260248201527f4e6f206d6f726520737061636520666f72206e657720736561742074797065736044820152606401610dd9565b8483146133bf5760405162461bcd60e51b815260206004820152603160248201527f4e756d626572206f6620736561742074797065206e616d657320616e642070726044820152700d2c6cae640c8de40dcdee840dac2e8c6d607b1b6064820152608401610dd9565b846134285760405162461bcd60e51b815260206004820152603360248201527f4e756d626572206f6620736561742074797065206e616d657320616e64207072604482015272696365732063616e6e6f74206265207a65726f60681b6064820152608401610dd9565b6000856001600160401b038111156134425761344261417f565b60405190808252806020026020018201604052801561346b578160200160208202803683370190505b50905060005b86811015613524576134f588888381811061348e5761348e614a88565b90506020028101906134a091906150ce565b8080601f0160208091040260200160405190810160405280939291908181526020018383808284376000920191909152508a92508991508590508181106134e9576134e9614a88565b905060200201356119ec565b82828151811061350757613507614a88565b60209081029190910101528061351c81614ca7565b915050613471565b509695505050505050565b600b54606090839081106135555760405162461bcd60e51b8152600401610dd990614cc0565b600b5484908490821061357a5760405162461bcd60e51b8152600401610dd990614cc0565b6000828152600c602052604090205481106135a75760405162461bcd60e51b8152600401610dd990614cf7565b6000868152600c602052604090208054869081106135c7576135c7614a88565b906000526020600020906004020160010180546135e390614d24565b80601f016020809104026020016040519081016040528092919081815260200182805461360f90614d24565b801561365c5780601f106136315761010080835404028352916020019161365c565b820191906000526020600020905b81548152906001019060200180831161363f57829003601f168201915b5050505050935050505092915050565b6000546001600160a01b03163314613696576040516282b42960e81b815260040160405180910390fd5b6008611e488282614d9e565b6060600b805480602002602001604051908101604052809291908181526020016000905b828210156137b357838290600052602060002090600402016040518060800160405290816000820154815260200160018201805461370390614d24565b80601f016020809104026020016040519081016040528092919081815260200182805461372f90614d24565b801561377c5780601f106137515761010080835404028352916020019161377c565b820191906000526020600020905b81548152906001019060200180831161375f57829003601f168201915b5050509183525050600282015460208083019190915260039092015460ff16151560409091015290825260019290920191016136c6565b50505050905090565b6000546001600160a01b031633146137e6576040516282b42960e81b815260040160405180910390fd5b6005611e488282614d9e565b6001600a5460ff16600381111561380b5761380b614300565b14613829576040516304a8e0fb60e01b815260040160405180910390fd5b60025460405163cb510e9760e01b81523360048201526001600160a01b039091169063cb510e9790602401602060405180830381865afa158015613871573d6000803e3d6000fd5b505050506040513d601f19601f820116820180604052508101906138959190614ff3565b61389e57600080fd5b60015460405163e95a644f60e01b8152600481018390526001600160a01b039091169063e95a644f906024016020604051808303816000875af11580156138e9573d6000803e3d6000fd5b505050506040513d601f19601f82011682018060405250810190611e489190614ff3565b6000546001600160a01b03163314613937576040516282b42960e81b815260040160405180910390fd5b6006611e488282614d9e565b6000546001600160a01b0316331461396d576040516282b42960e81b815260040160405180910390fd5b60015460405163a999984760e01b8152336004820152602481018390526000916001600160a01b03169063a9999847906044016020604051808303816000875af11580156139bf573d6000803e3d6000fd5b505050506040513d601f19601f820116820180604052508101906139e39190614f90565b604051909150600090339083908381818185875af1925050503d8060008114613a28576040519150601f19603f3d011682016040523d82523d6000602084013e613a2d565b606091505b5050905080613a4e5760405162461bcd60e51b8152600401610dd990614c63565b505050565b600c6020528160005260406000208181548110613a6f57600080fd5b906000526020600020906004020160009150915050806000015490806001018054612ead90614d24565b600254604051637812761360e11b81526001600160a01b039091169063f024ec2690613acb9085908590600401615114565b600060405180830381600087803b158015613ae557600080fd5b505af115801561119e573d6000803e3d6000fd5b60068054611bf690614d24565b60606000600160009054906101000a90046001600160a01b03166001600160a01b031663f67e15ba6040518163ffffffff1660e01b8152600401600060405180830381865afa158015613b5d573d6000803e3d6000fd5b505050506040513d6000823e601f3d908101601f19168201604052613b859190810190615138565b9050600081516001600160401b03811115613ba257613ba261417f565b604051908082528060200260200182016040528015613bdb57816020015b613bc861405f565b815260200190600190039081613bc05790505b50905060005b8251811015613cae5760015483516001600160a01b039091169063ff99a06390859084908110613c1357613c13614a88565b60200260200101516040518263ffffffff1660e01b8152600401613c3991815260200190565b600060405180830381865afa158015613c56573d6000803e3d6000fd5b505050506040513d6000823e601f3d908101601f19168201604052613c7e9190810190614af2565b828281518110613c9057613c90614a88565b60200260200101819052508080613ca690614ca7565b915050613be1565b5092915050565b6000546001600160a01b03163314613cdf576040516282b42960e81b815260040160405180910390fd5b600e55565b6000546060906001600160a01b03163314613d11576040516282b42960e81b815260040160405180910390fd5b600b5484908110613d345760405162461bcd60e51b8152600401610dd990614cc0565b600e546000868152600c602052604090205486918591613d559083906150b6565b1115613da35760405162461bcd60e51b815260206004820152601e60248201527f4e6f7420656e6f75676820737061636520666f72206e657720736561747300006044820152606401610dd9565b84613de25760405162461bcd60e51b815260206004820152600f60248201526e139bc81cd9585d1cc81d1bc8185919608a1b6044820152606401610dd9565b6000856001600160401b03811115613dfc57613dfc61417f565b604051908082528060200260200182016040528015613e25578160200160208202803683370190505b50905060005b86811015613ec457613e9589898984818110613e4957613e49614a88565b9050602002810190613e5b91906150ce565b8080601f01602080910402602001604051908101604052809392919081815260200183838082843760009201919091525061312292505050565b828281518110613ea757613ea7614a88565b602090810291909101015280613ebc81614ca7565b915050613e2b565b50979650505050505050565b6000546001600160a01b03163314613efa576040516282b42960e81b815260040160405180910390fd5b600b5482908110613f1d5760405162461bcd60e51b8152600401610dd990614cc0565b81600b8481548110613f3157613f31614a88565b60009182526020909120600490910201600301805460ff1916911515919091179055505050565b600b5460009082908110613f7e5760405162461bcd60e51b8152600401610dd990614cc0565b600b8381548110613f9157613f91614a88565b906000526020600020906004020160020154915050919050565b613fb361405f565b600154604051600162665f9d60e01b03198152600481018490526001600160a01b039091169063ff99a06390602401600060405180830381865afa158015613fff573d6000803e3d6000fd5b505050506040513d6000823e601f3d908101601f191682016040526122479190810190614af2565b6000614033838361403a565b9392505050565b6000815183511480156140335750508051602091820120825192909101919091201490565b604051806101c00160405280600081526020016000815260200160008152602001600081526020016060815260200160008152602001606081526020016060815260200160608152602001600060028111156140bd576140bd614300565b815260200160006001600160a01b031681526020016060815260200160008152602001600081525090565b6020808252825182820181905260009190848201906040850190845b818110156141295783516001600160a01b031683529284019291840191600101614104565b50909695505050505050565b801515811461414357600080fd5b50565b60008060006060848603121561415b57600080fd5b8335925060208401359150604084013561417481614135565b809150509250925092565b634e487b7160e01b600052604160045260246000fd5b6040516101c081016001600160401b03811182821017156141b8576141b861417f565b60405290565b604051601f8201601f191681016001600160401b03811182821017156141e6576141e661417f565b604052919050565b60006001600160401b038211156142075761420761417f565b50601f01601f191660200190565b600082601f83011261422657600080fd5b8135614239614234826141ee565b6141be565b81815284602083860101111561424e57600080fd5b816020850160208301376000918101602001919091529392505050565b6000806040838503121561427e57600080fd5b8235915060208301356001600160401b0381111561429b57600080fd5b6142a785828601614215565b9150509250929050565b6000806000606084860312156142c657600080fd5b833592506020840135915060408401356001600160401b038111156142ea57600080fd5b6142f686828701614215565b9150509250925092565b634e487b7160e01b600052602160045260246000fd5b602081016004831061432a5761432a614300565b91905290565b60006020828403121561434257600080fd5b5035919050565b600081518084526020808501945080840160005b838110156143795781518752958201959082019060010161435d565b509495945050505050565b60005b8381101561439f578181015183820152602001614387565b838111156143ae576000848401525b50505050565b600081518084526143cc816020860160208601614384565b601f01601f19169290920160200192915050565b600081518084526020808501945080840160005b838110156143795781511515875295820195908201906001016143f4565b6080815260006144256080830187614349565b6020838203818501528187518084528284019150828160051b850101838a0160005b8381101561447557601f198784030185526144638383516143b4565b94860194925090850190600101614447565b50508681036040880152614489818a614349565b94505050505082810360608401526144a181856143e0565b979650505050505050565b600080604083850312156144bf57600080fd5b82356001600160401b038111156144d557600080fd5b6144e185828601614215565b95602094909401359450505050565b60208152600061403360208301846143b4565b6000806040838503121561451657600080fd5b50508035926020909101359150565b80518252600060208201516080602085015261454460808501826143b4565b9050604083015160408501526060830151151560608501528091505092915050565b6020815260006140336020830184614525565b60006020828403121561458b57600080fd5b81356001600160401b038111156145a157600080fd5b6145ad84828501614215565b949350505050565b6001600160a01b038116811461414357600080fd5b6000602082840312156145dc57600080fd5b8135614033816145b5565b6000602080830181845280855180835260408601915060408160051b870101925083870160005b8281101561463c57603f1988860301845261462a858351614525565b9450928501929085019060010161460e565b5092979650505050505050565b84815260806020820152600061466260808301866143b4565b60408301949094525090151560609091015292915050565b60008083601f84011261468c57600080fd5b5081356001600160401b038111156146a357600080fd5b6020830191508360208260051b85010111156146be57600080fd5b9250929050565b600080600080604085870312156146db57600080fd5b84356001600160401b03808211156146f257600080fd5b6146fe8883890161467a565b9096509450602087013591508082111561471757600080fd5b506147248782880161467a565b95989497509550505050565b6020815260006140336020830184614349565b6000602080830181845280855180835260408601915060408160051b870101925083870160005b8281101561463c57603f19888603018452614786858351614525565b9450928501929085019060010161476a565b600080604083850312156147ab57600080fd5b82356147b6816145b5565b915060208301356001600160401b0381111561429b57600080fd5b600381106147e1576147e1614300565b9052565b60006101c0825184526020830151602085015260408301516040850152606083015160608501526080830151816080860152614823828601826143b4565b91505060a083015160a085015260c083015184820360c086015261484782826143b4565b91505060e083015184820360e086015261486182826143b4565b915050610100808401518583038287015261487c83826143b4565b9250505061012080840151614893828701826147d1565b5050610140838101516001600160a01b03169085015261016080840151858303828701526148c183826143b4565b61018086810151908801526101a095860151959096019490945250929392505050565b6000602080830181845280855180835260408601915060408160051b870101925083870160005b8281101561463c57603f198886030184526149278583516147e5565b9450928501929085019060010161490b565b60008060006040848603121561494e57600080fd5b8335925060208401356001600160401b0381111561496b57600080fd5b6149778682870161467a565b9497909650939450505050565b6000806040838503121561499757600080fd5b8235915060208301356149a981614135565b809150509250929050565b60208152600061403360208301846147e5565b60006001600160401b038211156149e0576149e061417f565b5060051b60200190565b80516149f5816145b5565b919050565b60006020808385031215614a0d57600080fd5b82516001600160401b03811115614a2357600080fd5b8301601f81018513614a3457600080fd5b8051614a42614234826149c7565b81815260059190911b82018301908381019087831115614a6157600080fd5b928401925b828410156144a1578351614a79816145b5565b82529284019290840190614a66565b634e487b7160e01b600052603260045260246000fd5b600082601f830112614aaf57600080fd5b8151614abd614234826141ee565b818152846020838601011115614ad257600080fd5b6145ad826020830160208701614384565b8051600381106149f557600080fd5b600060208284031215614b0457600080fd5b81516001600160401b0380821115614b1b57600080fd5b908301906101c08286031215614b3057600080fd5b614b38614195565b82518152602083015160208201526040830151604082015260608301516060820152608083015182811115614b6c57600080fd5b614b7887828601614a9e565b60808301525060a083015160a082015260c083015182811115614b9a57600080fd5b614ba687828601614a9e565b60c08301525060e083015182811115614bbe57600080fd5b614bca87828601614a9e565b60e0830152506101008084015183811115614be457600080fd5b614bf088828701614a9e565b828401525050610120614c04818501614ae3565b90820152610140614c168482016149ea565b908201526101608381015183811115614c2e57600080fd5b614c3a88828701614a9e565b918301919091525061018083810151908201526101a09283015192810192909252509392505050565b6020808252601490820152732330b4b632b2103a379039b2b7321022ba3432b960611b604082015260600190565b634e487b7160e01b600052601160045260246000fd5b600060018201614cb957614cb9614c91565b5060010190565b60208082526018908201527f53656174207479706520646f6573206e6f742065786973740000000000000000604082015260600190565b60208082526013908201527214d9585d08191bd95cc81b9bdd08195e1a5cdd606a1b604082015260600190565b600181811c90821680614d3857607f821691505b6020821081036125ae57634e487b7160e01b600052602260045260246000fd5b601f821115613a4e57600081815260208120601f850160051c81016020861015614d7f5750805b601f850160051c820191505b8181101561119e57828155600101614d8b565b81516001600160401b03811115614db757614db761417f565b614dcb81614dc58454614d24565b84614d58565b602080601f831160018114614e005760008415614de85750858301515b600019600386901b1c1916600185901b17855561119e565b600085815260208120601f198616915b82811015614e2f57888601518255948401946001909101908401614e10565b5085821015614e4d5787850151600019600388901b60f8161c191681555b5050505050600190811b01905550565b60208082526012908201527153656174207072696365206973207a65726f60701b604082015260600190565b6020808252601b908201527f496e76616c69642064657374696e6174696f6e20616464726573730000000000604082015260600190565b60008154614ecd81614d24565b808552602060018381168015614eea5760018114614f0457614f32565b60ff1985168884015283151560051b880183019550614f32565b866000528260002060005b85811015614f2a5781548a8201860152908301908401614f0f565b890184019650505b505050505092915050565b86815285602082015260c060408201526000614f5c60c0830187614ec0565b8560608401528281036080840152614f7481866143b4565b91505060018060a01b03831660a0830152979650505050505050565b600060208284031215614fa257600080fd5b5051919050565b600082821015614fbb57614fbb614c91565b500390565b8381526001600160a01b0383166020820152606060408201819052600090614fea908301846143b4565b95945050505050565b60006020828403121561500557600080fd5b815161403381614135565b6040815260006150236040830185614ec0565b8281036020840152614fea8185614ec0565b6020808252602d908201527f53656174206e616d652063616e6e6f74206265206c6f6e676572207468616e2060408201526c3332206368617261637465727360981b606082015260800190565b60006020828403121561509457600080fd5b81516001600160401b038111156150aa57600080fd5b6145ad84828501614a9e565b600082198211156150c9576150c9614c91565b500190565b6000808335601e198436030181126150e557600080fd5b8301803591506001600160401b038211156150ff57600080fd5b6020019150368190038213156146be57600080fd5b6001600160a01b03831681526040602082018190526000906145ad908301846143b4565b6000602080838503121561514b57600080fd5b82516001600160401b0381111561516157600080fd5b8301601f8101851361517257600080fd5b8051615180614234826149c7565b81815260059190911b8201830190838101908783111561519f57600080fd5b928401925b828410156144a1578351825292840192908401906151a456fea2646970667358221220130757d8bbbbc86e774b644b55b580a76f1a9008f899a08696d18b69725fb66964736f6c634300080f003360a06040523480156200001157600080fd5b5060405162003813380380620038138339810160408190526200003491620000bd565b60405180604001604052806006815260200165151a58dad95d60d21b815250604051806040016040528060048152602001635449434b60e01b815250816000908162000081919062000194565b50600162000090828262000194565b50503360805250600780546001600160a01b0319166001600160a01b039290921691909117905562000260565b600060208284031215620000d057600080fd5b81516001600160a01b0381168114620000e857600080fd5b9392505050565b634e487b7160e01b600052604160045260246000fd5b600181811c908216806200011a57607f821691505b6020821081036200013b57634e487b7160e01b600052602260045260246000fd5b50919050565b601f8211156200018f57600081815260208120601f850160051c810160208610156200016a5750805b601f850160051c820191505b818110156200018b5782815560010162000176565b5050505b505050565b81516001600160401b03811115620001b057620001b0620000ef565b620001c881620001c1845462000105565b8462000141565b602080601f831160018114620002005760008415620001e75750858301515b600019600386901b1c1916600185901b1785556200018b565b600085815260208120601f198616915b82811015620002315788860151825594840194600190910190840162000210565b5085821015620002505787850151600019600388901b60f8161c191681555b5050505050600190811b01905550565b6080516135746200029f600039600081816103380152818161074a01528181610be301528181610d10015281816112a8015261133401526135746000f3fe608060405234801561001057600080fd5b50600436106101f05760003560e01c806395d89b411161010f578063e95a644f116100a2578063f64bfaba11610071578063f64bfaba1461045c578063f67e15ba14610471578063fa71308314610486578063ff99a063146104b357600080fd5b8063e95a644f14610410578063e985e9c514610423578063eeca0fda14610436578063f06fc9611461044957600080fd5b8063a9999847116100de578063a9999847146103c4578063b88d4fde146103d7578063c87b56dd146103ea578063cb8764f4146103fd57600080fd5b806395d89b411461036d57806395ef1aeb14610375578063a22cb4651461039e578063a460b817146103b157600080fd5b806342842e0e1161018757806370a082311161015657806370a082311461030d5780637555fa82146103205780638da5cb5b146103335780638e3cf2471461035a57600080fd5b806342842e0e146102cc57806347f2ddee146102df5780636352211e146102e75780636f75b00c146102fa57600080fd5b806323b872dd116101c357806323b872dd146102725780632a55feec1461028557806331959257146102985780633e98d9a9146102b957600080fd5b806301ffc9a7146101f557806306fdde031461021d578063081812fc14610232578063095ea7b31461025d575b600080fd5b610208610203366004612a49565b6104d3565b60405190151581526020015b60405180910390f35b610225610525565b6040516102149190612abe565b610245610240366004612ad1565b6105b7565b6040516001600160a01b039091168152602001610214565b61027061026b366004612b06565b6105de565b005b610270610280366004612b30565b6106f8565b610208610293366004612b6c565b610729565b6102ab6102a6366004612c54565b61073d565b604051908152602001610214565b6102086102c7366004612ad1565b610bb2565b6102706102da366004612b30565b610bbd565b610270610bd8565b6102456102f5366004612ad1565b610ca5565b610270610308366004612b6c565b610d05565b6102ab61031b366004612b6c565b610eaa565b61027061032e366004612b06565b610f30565b6102457f000000000000000000000000000000000000000000000000000000000000000081565b6102ab610368366004612d19565b611031565b61022561127f565b6102ab610383366004612b6c565b6001600160a01b031660009081526009602052604090205490565b6102706103ac366004612d70565b61128e565b6102706103bf366004612dac565b61129d565b6102ab6103d2366004612b06565b611327565b6102706103e5366004612dd5565b611550565b6102256103f8366004612ad1565b611588565b61027061040b366004612b06565b6115fc565b61020861041e366004612ad1565b61169c565b610208610431366004612e51565b61176c565b610208610444366004612e84565b61179a565b6102ab610457366004612ad1565b6117cb565b61046461180a565b6040516102149190612ea7565b61047961186b565b6040516102149190612ef4565b610499610494366004612ad1565b61197a565b6040516102149e9d9c9b9a99989796959493929190612f64565b6104c66104c1366004612ad1565b611c99565b6040516102149190613025565b60006001600160e01b031982166380ac58cd60e01b148061050457506001600160e01b03198216635b5e139f60e01b145b8061051f57506301ffc9a760e01b6001600160e01b03198316145b92915050565b60606000805461053490613146565b80601f016020809104026020016040519081016040528092919081815260200182805461056090613146565b80156105ad5780601f10610582576101008083540402835291602001916105ad565b820191906000526020600020905b81548152906001019060200180831161059057829003601f168201915b5050505050905090565b60006105c28261205c565b506000908152600460205260409020546001600160a01b031690565b60006105e982610ca5565b9050806001600160a01b0316836001600160a01b03160361065b5760405162461bcd60e51b815260206004820152602160248201527f4552433732313a20617070726f76616c20746f2063757272656e74206f776e656044820152603960f91b60648201526084015b60405180910390fd5b336001600160a01b03821614806106775750610677813361176c565b6106e95760405162461bcd60e51b815260206004820152603d60248201527f4552433732313a20617070726f76652063616c6c6572206973206e6f7420746f60448201527f6b656e206f776e6572206f7220617070726f76656420666f7220616c6c0000006064820152608401610652565b6106f383836120ac565b505050565b610702338261211a565b61071e5760405162461bcd60e51b81526004016106529061317a565b6106f3838383612179565b600080610735836122dd565b519392505050565b6000336001600160a01b037f0000000000000000000000000000000000000000000000000000000000000000161461077457600080fd5b610782600680546001019055565b600061078d60065490565b9050610799838261237e565b60088054600181019091557ff3f7a9fe364faab93b216da50a3214154f22a0a2b415b23a84c8169e8b636ee30180546001600160a01b0319166001600160a01b0385811691821790925560009081526009602090815260409182902084905581516101c08101835284815260075483516304f9084b60e11b815293519194858401949116926309f21096926004808401938290030181865afa158015610843573d6000803e3d6000fd5b505050506040513d601f19601f8201168201806040525081019061086791906131c7565b81526020018a8152602001898152602001888152602001878152602001600760009054906101000a90046001600160a01b03166001600160a01b031663323046b16040518163ffffffff1660e01b8152600401600060405180830381865afa1580156108d7573d6000803e3d6000fd5b505050506040513d6000823e601f3d908101601f191682016040526108ff91908101906131e0565b8152602001600760009054906101000a90046001600160a01b03166001600160a01b031663b7a8807c6040518163ffffffff1660e01b8152600401600060405180830381865afa158015610957573d6000803e3d6000fd5b505050506040513d6000823e601f3d908101601f1916820160405261097f91908101906131e0565b8152602001600760009054906101000a90046001600160a01b03166001600160a01b0316634b6753bc6040518163ffffffff1660e01b8152600401600060405180830381865afa1580156109d7573d6000803e3d6000fd5b505050506040513d6000823e601f3d908101601f191682016040526109ff91908101906131e0565b815260200160008152602001846001600160a01b0316815260200186868080601f01602080910402602001604051908101604052809392919081815260200183838082843760009201829052509385525050426020808501829052604094850191909152858352600a81529183902084518155918401516001830155509082015160028201556060820151600382015560808201516004820190610aa390826132a5565b5060a0820151600582015560c08201516006820190610ac290826132a5565b5060e08201516007820190610ad790826132a5565b506101008201516008820190610aed90826132a5565b5061012082015160098201805460ff19166001836002811115610b1257610b12612f2c565b02179055506101408201516009820180546001600160a01b0390921661010002610100600160a81b0319909216919091179055610160820151600a820190610b5a90826132a5565b50610180820151600b8201556101a090910151600c909101556040518181527f017816d6671654d29260799b31a628be724d7e4fa8e22da3fae8ab443ec0a3c39060200160405180910390a198975050505050505050565b600061051f82612398565b6106f383838360405180602001604052806000815250611550565b336001600160a01b037f00000000000000000000000000000000000000000000000000000000000000001614610c0d57600080fd5b60005b600854811015610ca257610c8f60088281548110610c3057610c30613365565b9060005260206000200160009054906101000a90046001600160a01b03166009600060088581548110610c6557610c65613365565b60009182526020808320909101546001600160a01b03168352820192909252604001902054611327565b5080610c9a81613391565b915050610c10565b50565b6000818152600260205260408120546001600160a01b03168061051f5760405162461bcd60e51b8152602060048201526018602482015277115490cdcc8c4e881a5b9d985b1a59081d1bdad95b88125160421b6044820152606401610652565b336001600160a01b037f00000000000000000000000000000000000000000000000000000000000000001614610d3a57600080fd5b6000610d45826122dd565b80519091501515600003610d8d5760405162461bcd60e51b815260206004820152600f60248201526e109d5e595c881b9bdd08199bdd5b99608a1b6044820152606401610652565b602081015160085461010011610dd55760405162461bcd60e51b815260206004820152600d60248201526c0d2dcecc2d8d2c840d2dcc8caf609b1b6044820152606401610652565b805b600854610de6906001906133aa565b811015610e71576008610dfa8260016133c1565b81548110610e0a57610e0a613365565b600091825260209091200154600880546001600160a01b039092169183908110610e3657610e36613365565b600091825260209091200180546001600160a01b0319166001600160a01b039290921691909117905580610e6981613391565b915050610dd7565b506008805480610e8357610e836133d9565b600082815260209020810160001990810180546001600160a01b0319169055019055505050565b60006001600160a01b038216610f145760405162461bcd60e51b815260206004820152602960248201527f4552433732313a2061646472657373207a65726f206973206e6f7420612076616044820152683634b21037bbb732b960b91b6064820152608401610652565b506001600160a01b031660009081526003602052604090205490565b610f3a818361179a565b610f745760405162461bcd60e51b815260206004820152600b60248201526a2737ba103090313abcb2b960a91b6044820152606401610652565b6000818152600a602052604081206009015460ff166002811115610f9a57610f9a612f2c565b14610fdd5760405162461bcd60e51b81526020600482015260136024820152725469636b6574206973206e6f7420726561647960681b6044820152606401610652565b6000818152600a6020908152604091829020600901805460ff1916600217905590518281527fcde9d14635b01f742aa20ce9f93d256582733620665d6a65adb0d7e99abcacae910160405180910390a15050565b600081600061103e825190565b1161107b5760405162461bcd60e51b815260206004820152600d60248201526c4e616d6520697320656d70747960981b6044820152606401610652565b6020611085825190565b106110c55760405162461bcd60e51b815260206004820152601060248201526f4e616d6520697320746f6f206c6f6e6760801b6044820152606401610652565b60026000868152600a602052604090206009015460ff1660028111156110ed576110ed612f2c565b146111335760405162461bcd60e51b81526020600482015260166024820152755469636b6574206973206e6f74207472616461626c6560501b6044820152606401610652565b6000858152600a60205260409020600901546001600160a01b0380861661010090920416036111a45760405162461bcd60e51b815260206004820152601e60248201527f596f752063616e6e6f742062757920796f7572206f776e207469636b657400006044820152606401610652565b6001600160a01b0384166111ec5760405162461bcd60e51b815260206004820152600f60248201526e696e76616c6964206164647265737360881b6044820152606401610652565b6000858152600a602081905260409091206009810180546001600160a01b03888116610100908102610100600160a81b031984161790935591900416910161123485826132a5565b506000868152600a6020526040902060098101805460ff19169081905542600c9092019190915561127590829061010090046001600160a01b031688612179565b5093949350505050565b60606001805461053490613146565b6112993383836123b5565b5050565b336001600160a01b037f000000000000000000000000000000000000000000000000000000000000000016146112d257600080fd5b60008160028111156112e6576112e6612f2c565b146112f057600080fd5b6000828152600a60205260409020600901805482919060ff1916600183600281111561131e5761131e612f2c565b02179055505050565b6000336001600160a01b037f0000000000000000000000000000000000000000000000000000000000000000161461135e57600080fd5b8161136881612398565b6113845760405162461bcd60e51b8152600401610652906133ef565b61138e838561179a565b6113c85760405162461bcd60e51b815260206004820152600b60248201526a2737ba103090313abcb2b960a91b6044820152606401610652565b6000838152600a602052604081206009015460ff1660028111156113ee576113ee612f2c565b146114315760405162461bcd60e51b81526020600482015260136024820152725469636b6574206973206e6f7420726561647960681b6044820152606401610652565b6000838152600a6020526040902060050154806114845760405162461bcd60e51b815260206004820152601160248201527005469636b6574207072696365206973203607c1b6044820152606401610652565b61148d84612483565b61149685610d05565b6001600160a01b0385166000908152600960209081526040808320839055868352600a9091528120818155600181018290556002810182905560038101829055906114e46004830182612957565b60058201600090556006820160006114fc9190612957565b61150a600783016000612957565b611518600883016000612957565b6009820180546001600160a81b0319169055611538600a83016000612957565b506000600b8201819055600c90910155949350505050565b61155a338361211a565b6115765760405162461bcd60e51b81526004016106529061317a565b61158284848484612518565b50505050565b60606115938261205c565b60006115aa60408051602081019091526000815290565b905060008151116115ca57604051806020016040528060008152506115f5565b806115d48461254b565b6040516020016115e592919061341e565b6040516020818303038152906040525b9392505050565b611606818361179a565b61160f57600080fd5b60026000828152600a602052604090206009015460ff16600281111561163757611637612f2c565b1461167d5760405162461bcd60e51b81526020600482015260166024820152755469636b6574206973206e6f74207472616461626c6560501b6044820152606401610652565b6000818152600a60205260408120600901805460ff191660018361131e565b6000816116a881612398565b6116c45760405162461bcd60e51b8152600401610652906133ef565b60016000848152600a602052604090206009015460ff1660028111156116ec576116ec612f2c565b146117395760405162461bcd60e51b815260206004820152601c60248201527f5469636b657420697320616c726561647920636865636b656420696e000000006044820152606401610652565b6000838152600a6020526040902060098101805460ff1916600190811790915542600c9092019190915591505b50919050565b6001600160a01b03918216600090815260056020908152604080832093909416825291909152205460ff1690565b6001600160a01b0381166000908152600960205260408120548390036117c25750600161051f565b50600092915050565b6000816117d781612398565b6117f35760405162461bcd60e51b8152600401610652906133ef565b50506000908152600a602052604090206005015490565b606060088054806020026020016040519081016040528092919081815260200182805480156105ad57602002820191906000526020600020905b81546001600160a01b03168152600190910190602001808311611844575050505050905090565b60085460609060009067ffffffffffffffff81111561188c5761188c612b87565b6040519080825280602002602001820160405280156118b5578160200160208202803683370190505b5090506000805b60085481101561197257600060096000600884815481106118df576118df613365565b60009182526020808320909101546001600160a01b03168352820192909252604001902054905060026000828152600a602052604090206009015460ff16600281111561192e5761192e612f2c565b0361195f578084848151811061194657611946613365565b60209081029190910101528261195b81613391565b9350505b508061196a81613391565b9150506118bc565b509092915050565b600a602052600090815260409020805460018201546002830154600384015460048501805494959394929391926119b090613146565b80601f01602080910402602001604051908101604052809291908181526020018280546119dc90613146565b8015611a295780601f106119fe57610100808354040283529160200191611a29565b820191906000526020600020905b815481529060010190602001808311611a0c57829003601f168201915b505050505090806005015490806006018054611a4490613146565b80601f0160208091040260200160405190810160405280929190818152602001828054611a7090613146565b8015611abd5780601f10611a9257610100808354040283529160200191611abd565b820191906000526020600020905b815481529060010190602001808311611aa057829003601f168201915b505050505090806007018054611ad290613146565b80601f0160208091040260200160405190810160405280929190818152602001828054611afe90613146565b8015611b4b5780601f10611b2057610100808354040283529160200191611b4b565b820191906000526020600020905b815481529060010190602001808311611b2e57829003601f168201915b505050505090806008018054611b6090613146565b80601f0160208091040260200160405190810160405280929190818152602001828054611b8c90613146565b8015611bd95780601f10611bae57610100808354040283529160200191611bd9565b820191906000526020600020905b815481529060010190602001808311611bbc57829003601f168201915b505050506009830154600a84018054939460ff8316946101009093046001600160a01b0316935091611c0a90613146565b80601f0160208091040260200160405190810160405280929190818152602001828054611c3690613146565b8015611c835780601f10611c5857610100808354040283529160200191611c83565b820191906000526020600020905b815481529060010190602001808311611c6657829003601f168201915b50505050509080600b01549080600c015490508e565b611ca1612991565b81611cab81612398565b611cc75760405162461bcd60e51b8152600401610652906133ef565b600a6000848152602001908152602001600020604051806101c001604052908160008201548152602001600182015481526020016002820154815260200160038201548152602001600482018054611d1e90613146565b80601f0160208091040260200160405190810160405280929190818152602001828054611d4a90613146565b8015611d975780601f10611d6c57610100808354040283529160200191611d97565b820191906000526020600020905b815481529060010190602001808311611d7a57829003601f168201915b5050505050815260200160058201548152602001600682018054611dba90613146565b80601f0160208091040260200160405190810160405280929190818152602001828054611de690613146565b8015611e335780601f10611e0857610100808354040283529160200191611e33565b820191906000526020600020905b815481529060010190602001808311611e1657829003601f168201915b50505050508152602001600782018054611e4c90613146565b80601f0160208091040260200160405190810160405280929190818152602001828054611e7890613146565b8015611ec55780601f10611e9a57610100808354040283529160200191611ec5565b820191906000526020600020905b815481529060010190602001808311611ea857829003601f168201915b50505050508152602001600882018054611ede90613146565b80601f0160208091040260200160405190810160405280929190818152602001828054611f0a90613146565b8015611f575780601f10611f2c57610100808354040283529160200191611f57565b820191906000526020600020905b815481529060010190602001808311611f3a57829003601f168201915b5050509183525050600982015460209091019060ff166002811115611f7e57611f7e612f2c565b6002811115611f8f57611f8f612f2c565b8152600982015461010090046001600160a01b03166020820152600a82018054604090920191611fbe90613146565b80601f0160208091040260200160405190810160405280929190818152602001828054611fea90613146565b80156120375780601f1061200c57610100808354040283529160200191612037565b820191906000526020600020905b81548152906001019060200180831161201a57829003601f168201915b50505050508152602001600b8201548152602001600c82015481525050915050919050565b61206581612398565b610ca25760405162461bcd60e51b8152602060048201526018602482015277115490cdcc8c4e881a5b9d985b1a59081d1bdad95b88125160421b6044820152606401610652565b600081815260046020526040902080546001600160a01b0319166001600160a01b03841690811790915581906120e182610ca5565b6001600160a01b03167f8c5be1e5ebec7d5bd14f71427d1e84f3dd0314c0f7b2291e5b200ac8c7c3b92560405160405180910390a45050565b60008061212683610ca5565b9050806001600160a01b0316846001600160a01b0316148061214d575061214d818561176c565b806121715750836001600160a01b0316612166846105b7565b6001600160a01b0316145b949350505050565b826001600160a01b031661218c82610ca5565b6001600160a01b0316146121b25760405162461bcd60e51b81526004016106529061344d565b6001600160a01b0382166122145760405162461bcd60e51b8152602060048201526024808201527f4552433732313a207472616e7366657220746f20746865207a65726f206164646044820152637265737360e01b6064820152608401610652565b826001600160a01b031661222782610ca5565b6001600160a01b03161461224d5760405162461bcd60e51b81526004016106529061344d565b600081815260046020908152604080832080546001600160a01b03199081169091556001600160a01b0387811680865260038552838620805460001901905590871680865283862080546001019055868652600290945282852080549092168417909155905184937fddf252ad1be2c89b69c2b068fc378daa952ba7f163c4a11628f55a4df523b3ef91a4505050565b604080518082019091526000808252602082015260005b60085481101561236357826001600160a01b03166008828154811061231b5761231b613365565b6000918252602090912001546001600160a01b031603612351576040805180820190915260018152602081019190915292915050565b8061235b81613391565b9150506122f4565b50506040805180820190915260008082526020820152919050565b6112998282604051806020016040528060008152506125de565b6000908152600260205260409020546001600160a01b0316151590565b816001600160a01b0316836001600160a01b0316036124165760405162461bcd60e51b815260206004820152601960248201527f4552433732313a20617070726f766520746f2063616c6c6572000000000000006044820152606401610652565b6001600160a01b03838116600081815260056020908152604080832094871680845294825291829020805460ff191686151590811790915591519182527f17307eab39ab6107e8899845ad3d59bd9653f200f220920489ca2b5937696c31910160405180910390a3505050565b600061248e82610ca5565b905061249982610ca5565b600083815260046020908152604080832080546001600160a01b03199081169091556001600160a01b0385168085526003845282852080546000190190558785526002909352818420805490911690555192935084927fddf252ad1be2c89b69c2b068fc378daa952ba7f163c4a11628f55a4df523b3ef908390a45050565b612523848484612179565b61252f84848484612611565b6115825760405162461bcd60e51b815260040161065290613492565b6060600061255883612712565b600101905060008167ffffffffffffffff81111561257857612578612b87565b6040519080825280601f01601f1916602001820160405280156125a2576020820181803683370190505b5090508181016020015b600019016f181899199a1a9b1b9c1cb0b131b232b360811b600a86061a8153600a85049450846125ac57509392505050565b6125e883836127ea565b6125f56000848484612611565b6106f35760405162461bcd60e51b815260040161065290613492565b60006001600160a01b0384163b1561270757604051630a85bd0160e11b81526001600160a01b0385169063150b7a02906126559033908990889088906004016134e4565b6020604051808303816000875af1925050508015612690575060408051601f3d908101601f1916820190925261268d91810190613521565b60015b6126ed573d8080156126be576040519150601f19603f3d011682016040523d82523d6000602084013e6126c3565b606091505b5080516000036126e55760405162461bcd60e51b815260040161065290613492565b805181602001fd5b6001600160e01b031916630a85bd0160e11b149050612171565b506001949350505050565b60008072184f03e93ff9f4daa797ed6e38ed64bf6a1f0160401b83106127515772184f03e93ff9f4daa797ed6e38ed64bf6a1f0160401b830492506040015b6d04ee2d6d415b85acef8100000000831061277d576d04ee2d6d415b85acef8100000000830492506020015b662386f26fc10000831061279b57662386f26fc10000830492506010015b6305f5e10083106127b3576305f5e100830492506008015b61271083106127c757612710830492506004015b606483106127d9576064830492506002015b600a831061051f5760010192915050565b6001600160a01b0382166128405760405162461bcd60e51b815260206004820181905260248201527f4552433732313a206d696e7420746f20746865207a65726f20616464726573736044820152606401610652565b61284981612398565b156128965760405162461bcd60e51b815260206004820152601c60248201527f4552433732313a20746f6b656e20616c7265616479206d696e746564000000006044820152606401610652565b61289f81612398565b156128ec5760405162461bcd60e51b815260206004820152601c60248201527f4552433732313a20746f6b656e20616c7265616479206d696e746564000000006044820152606401610652565b6001600160a01b038216600081815260036020908152604080832080546001019055848352600290915280822080546001600160a01b0319168417905551839291907fddf252ad1be2c89b69c2b068fc378daa952ba7f163c4a11628f55a4df523b3ef908290a45050565b50805461296390613146565b6000825580601f10612973575050565b601f016020900490600052602060002090810190610ca29190612a1a565b604051806101c00160405280600081526020016000815260200160008152602001600081526020016060815260200160008152602001606081526020016060815260200160608152602001600060028111156129ef576129ef612f2c565b815260200160006001600160a01b031681526020016060815260200160008152602001600081525090565b5b80821115612a2f5760008155600101612a1b565b5090565b6001600160e01b031981168114610ca257600080fd5b600060208284031215612a5b57600080fd5b81356115f581612a33565b60005b83811015612a81578181015183820152602001612a69565b838111156115825750506000910152565b60008151808452612aaa816020860160208601612a66565b601f01601f19169290920160200192915050565b6020815260006115f56020830184612a92565b600060208284031215612ae357600080fd5b5035919050565b80356001600160a01b0381168114612b0157600080fd5b919050565b60008060408385031215612b1957600080fd5b612b2283612aea565b946020939093013593505050565b600080600060608486031215612b4557600080fd5b612b4e84612aea565b9250612b5c60208501612aea565b9150604084013590509250925092565b600060208284031215612b7e57600080fd5b6115f582612aea565b634e487b7160e01b600052604160045260246000fd5b604051601f8201601f1916810167ffffffffffffffff81118282101715612bc657612bc6612b87565b604052919050565b600067ffffffffffffffff821115612be857612be8612b87565b50601f01601f191660200190565b6000612c09612c0484612bce565b612b9d565b9050828152838383011115612c1d57600080fd5b828260208301376000602084830101529392505050565b600082601f830112612c4557600080fd5b6115f583833560208501612bf6565b600080600080600080600060c0888a031215612c6f57600080fd5b8735965060208801359550604088013567ffffffffffffffff80821115612c9557600080fd5b612ca18b838c01612c34565b965060608a0135955060808a0135915080821115612cbe57600080fd5b818a0191508a601f830112612cd257600080fd5b813581811115612ce157600080fd5b8b6020828501011115612cf357600080fd5b602083019550809450505050612d0b60a08901612aea565b905092959891949750929550565b600080600060608486031215612d2e57600080fd5b83359250612d3e60208501612aea565b9150604084013567ffffffffffffffff811115612d5a57600080fd5b612d6686828701612c34565b9150509250925092565b60008060408385031215612d8357600080fd5b612d8c83612aea565b915060208301358015158114612da157600080fd5b809150509250929050565b60008060408385031215612dbf57600080fd5b82359150602083013560038110612da157600080fd5b60008060008060808587031215612deb57600080fd5b612df485612aea565b9350612e0260208601612aea565b925060408501359150606085013567ffffffffffffffff811115612e2557600080fd5b8501601f81018713612e3657600080fd5b612e4587823560208401612bf6565b91505092959194509250565b60008060408385031215612e6457600080fd5b612e6d83612aea565b9150612e7b60208401612aea565b90509250929050565b60008060408385031215612e9757600080fd5b82359150612e7b60208401612aea565b6020808252825182820181905260009190848201906040850190845b81811015612ee85783516001600160a01b031683529284019291840191600101612ec3565b50909695505050505050565b6020808252825182820181905260009190848201906040850190845b81811015612ee857835183529284019291840191600101612f10565b634e487b7160e01b600052602160045260246000fd5b60038110612f6057634e487b7160e01b600052602160045260246000fd5b9052565b8e81528d60208201528c60408201528b60608201526101c060808201526000612f916101c083018d612a92565b8b60a084015282810360c0840152612fa9818c612a92565b905082810360e0840152612fbd818b612a92565b9050828103610100840152612fd2818a612a92565b9050612fe2610120840189612f42565b6001600160a01b0387166101408401528281036101608401526130058187612a92565b61018084019590955250506101a001529c9b505050505050505050505050565b6020815281516020820152602082015160408201526040820151606082015260608201516080820152600060808301516101c08060a085015261306c6101e0850183612a92565b915060a085015160c085015260c0850151601f19808685030160e08701526130948483612a92565b935060e087015191506101008187860301818801526130b38584612a92565b9450808801519250506101208187860301818801526130d28584612a92565b9450808801519250506101406130ea81880184612f42565b8701519150610160613106878201846001600160a01b03169052565b808801519250506101808187860301818801526131238584612a92565b908801516101a08881019190915290970151929095019190915250929392505050565b600181811c9082168061315a57607f821691505b60208210810361176657634e487b7160e01b600052602260045260246000fd5b6020808252602d908201527f4552433732313a2063616c6c6572206973206e6f7420746f6b656e206f776e6560408201526c1c881bdc88185c1c1c9bdd9959609a1b606082015260800190565b6000602082840312156131d957600080fd5b5051919050565b6000602082840312156131f257600080fd5b815167ffffffffffffffff81111561320957600080fd5b8201601f8101841361321a57600080fd5b8051613228612c0482612bce565b81815285602083850101111561323d57600080fd5b61324e826020830160208601612a66565b95945050505050565b601f8211156106f357600081815260208120601f850160051c8101602086101561327e5750805b601f850160051c820191505b8181101561329d5782815560010161328a565b505050505050565b815167ffffffffffffffff8111156132bf576132bf612b87565b6132d3816132cd8454613146565b84613257565b602080601f83116001811461330857600084156132f05750858301515b600019600386901b1c1916600185901b17855561329d565b600085815260208120601f198616915b8281101561333757888601518255948401946001909101908401613318565b50858210156133555787850151600019600388901b60f8161c191681555b5050505050600190811b01905550565b634e487b7160e01b600052603260045260246000fd5b634e487b7160e01b600052601160045260246000fd5b6000600182016133a3576133a361337b565b5060010190565b6000828210156133bc576133bc61337b565b500390565b600082198211156133d4576133d461337b565b500190565b634e487b7160e01b600052603160045260246000fd5b602080825260159082015274151a58dad95d08191bd95cc81b9bdd08195e1a5cdd605a1b604082015260600190565b60008351613430818460208801612a66565b835190830190613444818360208801612a66565b01949350505050565b60208082526025908201527f4552433732313a207472616e736665722066726f6d20696e636f72726563742060408201526437bbb732b960d91b606082015260800190565b60208082526032908201527f4552433732313a207472616e7366657220746f206e6f6e20455243373231526560408201527131b2b4bb32b91034b6b83632b6b2b73a32b960711b606082015260800190565b6001600160a01b038581168252841660208201526040810183905260806060820181905260009061351790830184612a92565b9695505050505050565b60006020828403121561353357600080fd5b81516115f581612a3356fea264697066735822122081de8e5c69d5bf628897ecb8a339681b285da549bec29a13d58d468a009b9e5e64736f6c634300080f003360a060405234801561001057600080fd5b50604051610b22380380610b2283398101604081905261002f91610058565b33608052600280546001600160a01b0319166001600160a01b0392909216919091179055610088565b60006020828403121561006a57600080fd5b81516001600160a01b038116811461008157600080fd5b9392505050565b608051610a726100b06000396000818160c50152818161027401526104510152610a726000f3fe608060405234801561001057600080fd5b506004361061007d5760003560e01c8063b99b07031161005b578063b99b0703146100ff578063c4522c9214610110578063cb510e9714610125578063f024ec261461014857600080fd5b806304c870dc1461008257806377130069146100a05780638da5cb5b146100c0575b600080fd5b61008a61015b565b60405161009791906106b2565b60405180910390f35b6100b36100ae36600461071b565b6101bd565b604051610097919061073d565b6100e77f000000000000000000000000000000000000000000000000000000000000000081565b6040516001600160a01b039091168152602001610097565b600054604051908152602001610097565b61012361011e36600461071b565b610269565b005b61013861013336600461071b565b610432565b6040519015158152602001610097565b6101236101563660046107a8565b610446565b606060008054806020026020016040519081016040528092919081815260200182805480156101b357602002820191906000526020600020905b81546001600160a01b03168152600190910190602001808311610195575b5050505050905090565b6001600160a01b03811660009081526001602052604090208054606091906101e49061086a565b80601f01602080910402602001604051908101604052809291908181526020018280546102109061086a565b801561025d5780601f106102325761010080835404028352916020019161025d565b820191906000526020600020905b81548152906001019060200180831161024057829003601f168201915b50505050509050919050565b336001600160a01b037f0000000000000000000000000000000000000000000000000000000000000000161461029e57600080fd5b60006102a9826105bb565b805190915015156000036102f65760405162461bcd60e51b815260206004820152600f60248201526e14dd185999881b9bdd08199bdd5b99608a1b60448201526064015b60405180910390fd5b60208101516000546101001161033e5760405162461bcd60e51b815260206004820152600d60248201526c0d2dcecc2d8d2c840d2dcc8caf609b1b60448201526064016102ed565b805b60005461034f906001906108ba565b8110156103d85760006103638260016108d1565b81548110610373576103736108e9565b600091825260208220015481546001600160a01b0390911691908390811061039d5761039d6108e9565b600091825260209091200180546001600160a01b0319166001600160a01b0392909216919091179055806103d0816108ff565b915050610340565b5060008054806103ea576103ea610918565b60008281526020808220830160001990810180546001600160a01b03191690559092019092556001600160a01b0385168252600190526040812061042d9161065c565b505050565b60008061043e836105bb565b519392505050565b336001600160a01b037f0000000000000000000000000000000000000000000000000000000000000000161461047b57600080fd5b806000610486825190565b116104c35760405162461bcd60e51b815260206004820152600d60248201526c4e616d6520697320656d70747960981b60448201526064016102ed565b60206104cd825190565b1061050d5760405162461bcd60e51b815260206004820152601060248201526f4e616d6520697320746f6f206c6f6e6760801b60448201526064016102ed565b600054610100116105575760405162461bcd60e51b815260206004820152601460248201527314dd1859999cc8185c9c985e481a5cc8199d5b1b60621b60448201526064016102ed565b60008054600180820183557f290decd9548b62a8d60345a988386fc84ba6bc95484008f6362f93160ef3e56390910180546001600160a01b0319166001600160a01b0387169081179091558252602052604090206105b5838261097c565b50505050565b604080518082019091526000808252602082015260005b60005481101561064157826001600160a01b0316600082815481106105f9576105f96108e9565b6000918252602090912001546001600160a01b03160361062f576040805180820190915260018152602081019190915292915050565b80610639816108ff565b9150506105d2565b50506040805180820190915260008082526020820152919050565b5080546106689061086a565b6000825580601f10610678575050565b601f0160209004906000526020600020908101906106969190610699565b50565b5b808211156106ae576000815560010161069a565b5090565b6020808252825182820181905260009190848201906040850190845b818110156106f35783516001600160a01b0316835292840192918401916001016106ce565b50909695505050505050565b80356001600160a01b038116811461071657600080fd5b919050565b60006020828403121561072d57600080fd5b610736826106ff565b9392505050565b600060208083528351808285015260005b8181101561076a5785810183015185820160400152820161074e565b8181111561077c576000604083870101525b50601f01601f1916929092016040019392505050565b634e487b7160e01b600052604160045260246000fd5b600080604083850312156107bb57600080fd5b6107c4836106ff565b9150602083013567ffffffffffffffff808211156107e157600080fd5b818501915085601f8301126107f557600080fd5b81358181111561080757610807610792565b604051601f8201601f19908116603f0116810190838211818310171561082f5761082f610792565b8160405282815288602084870101111561084857600080fd5b8260208601602083013760006020848301015280955050505050509250929050565b600181811c9082168061087e57607f821691505b60208210810361089e57634e487b7160e01b600052602260045260246000fd5b50919050565b634e487b7160e01b600052601160045260246000fd5b6000828210156108cc576108cc6108a4565b500390565b600082198211156108e4576108e46108a4565b500190565b634e487b7160e01b600052603260045260246000fd5b600060018201610911576109116108a4565b5060010190565b634e487b7160e01b600052603160045260246000fd5b601f82111561042d57600081815260208120601f850160051c810160208610156109555750805b601f850160051c820191505b8181101561097457828155600101610961565b505050505050565b815167ffffffffffffffff81111561099657610996610792565b6109aa816109a4845461086a565b8461092e565b602080601f8311600181146109df57600084156109c75750858301515b600019600386901b1c1916600185901b178555610974565b600085815260208120601f198616915b82811015610a0e578886015182559484019460019091019084016109ef565b5085821015610a2c5787850151600019600388901b60f8161c191681555b5050505050600190811b0190555056fea26469706673582212205368ba9f87b5a2b2a19045c47fd7ee97c7678bffae2aa33c16bc1fd1cef8f72064736f6c634300080f0033",
        "linkReferences": {}
    },
    "methodIdentifiers": {
        "MAX_SEATS()": "94c2c24f",
        "MAX_SEAT_TYPES()": "6e39db53",
        "MAX_STAFFS()": "4dfd39f5",
        "addSeat(uint256,string)": "ceec2f95",
        "addSeatType(string,uint256)": "2284312a",
        "addSeatTypes(string[],uint256[])": "cf1a05e2",
        "addSeats(uint256,string[])": "f9ddb4a5",
        "addStaff(address,string)": "f024ec26",
        "buyOfferedTicket(uint256,string)": "3cdc6536",
        "buyTicket(uint256,uint256,string)": "1d6916ab",
        "cancelShow()": "0b519f69",
        "cancelTicket(uint256)": "ee355b1f",
        "checkIn(uint256)": "e95a644f",
        "closingTime()": "4b6753bc",
        "date()": "323046b1",
        "description()": "7284e416",
        "existTicket(uint256)": "3e98d9a9",
        "getRawSeatTypes()": "e42705e7",
        "getRawSeats(uint256)": "81f7c1ce",
        "getSeat(uint256,uint256)": "324c7e1a",
        "getSeatName(uint256,uint256)": "d00554e8",
        "getSeatType(uint256)": "43c5d3d4",
        "getSeatTypePrice(uint256)": "fd99bddd",
        "getSeatTypes()": "99c84bd3",
        "getSeatTypesCount()": "90e8042e",
        "getSeats(uint256)": "2013e0d5",
        "getSeatsCount(uint256)": "5357306a",
        "getStaffCount()": "b99b0703",
        "getStaffName(address)": "77130069",
        "getStaffs()": "04c870dc",
        "getTicketInfo(uint256)": "ff99a063",
        "getTradableTickets()": "f67e15ba",
        "image()": "f3ccaac0",
        "isSeatAvailable(uint256,uint256)": "3ec5c458",
        "isStaff(address)": "cb510e97",
        "offerTicket(uint256)": "7ef2127d",
        "openingTime()": "b7a8807c",
        "owner()": "8da5cb5b",
        "removeStaff(address)": "c4522c92",
        "seatTypes(uint256)": "b39e54f4",
        "seats(uint256,uint256)": "eec2ff1b",
        "setMaxSeatTypes(uint256)": "955f204b",
        "setMaxSeats(uint256)": "f86d3474",
        "setMaxStaffs(uint256)": "b6cd04f0",
        "setShowScheduled()": "4275d5a8",
        "showId()": "09f21096",
        "status()": "200d2ed2",
        "title()": "4a79d50c",
        "transferOwnershipTo(address)": "52effe11",
        "unofferTicket(uint256)": "432c81a4",
        "updateClosingTime(string)": "92777edf",
        "updateDate(string)": "b90c1671",
        "updateDescription(string)": "e735b48a",
        "updateImage(string)": "eb3d68e7",
        "updateOpeningTime(string)": "d4bb9ca6",
        "updateSeatAvailability(uint256,uint256,bool)": "18669879",
        "updateSeatName(uint256,uint256,string)": "469498c1",
        "updateSeatTypeAvailability(uint256,bool)": "fbb6e55d",
        "updateSeatTypeName(uint256,string)": "1be56e9b",
        "updateSeatTypePrice(uint256,uint256)": "c22f9c18",
        "updateTitle(string)": "37fb13b0",
        "withdraw()": "3ccfd60b"
    },
    "id": 21
}